:1000000000000120C51E0000FD1E0000ED110000D3
:10001000011F0000FD11000005120000000000009B
:10002000000000000000000000000000071F0000AA
:10003000091F0000000000000B1F00000D1F000042
:100040000F1F00000F1F00000F1F00000F1F0000F8
:100050000F1F00000F1F00000F1F00000F1F0000E8
:100060000F1F00000F1F00000F1F00000F1F0000D8
:100070000F1F0000A93F00000F1F00000F1F00000E
:100080000F1F00000F1F00000F1F00000F1F0000B8
:100090000F1F00000F1F00000F1F00000F1F0000A8
:1000A0000F1F00000F1F00000F1F00000F1F000098
:1000B0000F1F00000F1F00000000000000000000E4
:1000C0000F1F00000F1F00000F1F00000F1F000078
:1000D0000F1F00000F1F00000F1F000010B5054C80
:1000E000237833B9044B13B10448AFF300800123E4
:1000F000237010BDE00B002000000000D4DC0000E5
:1001000008B5034B1BB103490348AFF3008008BD9A
:1001100000000000E40B0020D4DC0000154B002B95
:1001200008BF134B9D46A3F5803A00218B460F462E
:100130001348144A121A05F059FE0F4B002B00D039
:1001400098470E4B002B00D0984700200021040058
:100150000D000D48002802D00C4801F045FC05F0C8
:100160004FF92000290001F097FE01F03AFC00BF92
:100170000000080000000120000000008D1E0000AB
:10018000E00B002068140020E919000000000000C6
:10019000063150F8210070470144087B704700EB9E
:1001A000810148697047036810B504465B69984748
:1001B000A36863612369A3610023236110BD7047B5
:1001C00010B5084B0360044600F00BFB636B1BB1DA
:1001D0009B6804F128009847204600F073FB2046F6
:1001E00010BD00BFB0CF000010B5044B044640F86E
:1001F000203BFFF7E5FF204610BD00BF14CE0000F6
:1002000010B50446FFF7DCFF2046402101F052FD07
:10021000204610BD08B504F0EDF804F0B9F8FCE78D
:1002200010B5094B036003F120028C330446C0F87B
:10023000FC20C0F80031FC3000F076FF204600F0D2
:100240002FFA204610BD00BFFCCE0000A0F1FC003C
:10025000E6E7A0F58070E3E710B5044B044640F8EC
:100260001C3BFFF7DDFF204610BD00BFE8D90000B2
:1002700010B50446FFF7D4FF20464FF48C7101F00F
:1002800019FD204610BDA0F1FC00F1E7A0F580703B
:10029000EEE70000F7B5194D194C1A4F1A4E4FF4FE
:1002A0007A71284603F08CFF224618492846184DDB
:1002B00001F095FB0A21384603F0B0FE15492846A7
:1002C00003F0FCFE02221F21304603F041FF2246CC
:1002D00011490024304601F082FB3346224629466C
:1002E00000940E4803F0F2FF00942B462246394654
:1002F0000B4803F0EBFF03B0F0BD00BF280C00205B
:10030000E0000020880C0020D00E0020E901000051
:10031000B00C00206DD6000059020000FC0B00203C
:10032000100C002008B50346024653F8040B20B910
:10033000106810B91360184608BD9842FCD00249F5
:1003400002488B2201F08AF82CCE000078CE000003
:10035000C36810B504460BB19B689847204610BD92
:10036000036818470B68036070477047C36810B58F
:1003700004460BB19B689847204610BD884238B5AB
:1003800004460D460ED0FFF7F1FF10220021204653
:1003900005F02CFDEB681BB15B68294620469847A9
:1003A000EB68E360204638BDC36810B52BB905493A
:1003B000054840F23B2201F051F8BDE810401B68AF
:1003C000184700BF9BCE0000E3CE00006FF0150081
:1003D000704703681B69184703689B6918470368DF
:1003E0009B6A184700290CBF6FF018000020704767
:1003F000012070476FF0150070476FF015007047CF
:10040000112070477047704700F07BB8A0F1FC00E6
:10041000FFF7FABF00F078B8A0F1FC00FFF7FABFD1
:100420007047704738B504461D46049B00F074F8C9
:10043000294604F1FC0000F04DFE064B03F10802D2
:10044000226003F128029433C4F8FC20C4F8003180
:10045000204638BDF4CE00007047416830B40346F2
:1004600071B1D0E9032000F0010402B944B1451094
:1004700001EB60000CB149598A58996830BC1047AB
:1004800030BC704770B500F14C0690F9DF2090F950
:10049000DE100446304602F03DFAD4E939530DB976
:1004A000DA070ED55A1004EB6300DB0748BFA358E8
:1004B00094F8EC1048BF5D5994F9ED2094F9EE30B2
:1004C000A847D4F8D810304602F0D2FA2246304677
:1004D0000249BDE8704002F045BB00BF250700009F
:1004E00038B50546044655F84C3B1B6898472846E6
:1004F00002F0DAFB236805465B68204698472846E9
:1005000038BD4C3002F05CBB10B54C300C4602F0EC
:1005100095FB204610BD00002DE9FF479846394B5A
:100520000360394B43600025384BC3600446C0E983
:100530000555C0E907550F4616468560858429464E
:1005400000611022283005F051FC2946102204F1E8
:10055000380005F04BFC04F1B80A2946A4F84850CD
:100560006C2204F14C0005F041FC04F1C809294655
:100570001022504605F03AFC29461022484605F064
:1005800035FC40F20113A4F8DC304FF47F43A4F8AB
:10059000EC30FF2384F8EE3010222946C4E93855A8
:1005A000C4E93C55C4F8D88084F8DE7084F8DF6074
:1005B000C4F8E850C4F8F850684605F017FC6946DE
:1005C0005046FFF7DBFE6846FFF7D0FE10222946B3
:1005D000684605F00BFC69464846FFF7CFFE6846C3
:1005E000FFF7C4FEA3685A1013F0010F04EB630079
:1005F00018BFA258636818BFD3589847204604B064
:10060000BDE8F08798CF0000850400005B0400007F
:100610002DE9FF41036804461B6816460F469847BC
:1006200094F8DC30350103B186B194F8DD300BB1BC
:10063000012E0BD0B83539466019FFF79FFE2368AD
:1006400020465B68984704B0BDE8F081B83500F0FB
:10065000E3FF2544FA68EB6804F14C0872B10BB96A
:1006600001F008F939462846FFF788FE0122314695
:10067000404602F087FA00F0E5FFE0E70BB101F039
:100680000FF910220021684605F0B0FB69462846A4
:10069000FFF774FE6846FFF769FE0022E7E70000F7
:1006A0001FB51A4B0360044610220021684605F06E
:1006B0009DFB002269462046FFF7AAFF6846FFF728
:1006C00055FE10220021684605F090FB0122694684
:1006D0002046FFF79DFF6846FFF748FE04F1C8007B
:1006E000FFF744FE04F1B800FFF740FE04F13800C4
:1006F000FFF72EFE04F12800FFF72AFE206A08B15A
:1007000000F0A6FB204604B010BD00BF98CF00004B
:1007100010B50446FFF7C4FF2046FC2101F0CAFAD9
:10072000204610BD00EB0110B83008B5C3680BB10E
:10073000FFF73AFE08BD70B5D0E90813D0E90225ED
:100740000446521845EB030300F0ACF8636B2BB181
:1007500004F128001B68BDE87040184770BD000018
:1007600010B5044600F086F8084B236000220023F1
:10077000C4E908230021102204F1280005F036FB0B
:10078000012384F83830204610BD00BFB0CF0000F0
:1007900070B5044615461E4600F03EFF204600F0A8
:1007A0008BF8C4E90856A06900F017FB421941EB29
:1007B0000603204600F076F8BDE8704000F042BF26
:1007C00038B50D4610220021044605F00FFBEB68FA
:1007D0001BB15B68294620469847EB68E3602046DA
:1007E00038BD1FB5044600F017FF204600F064F83E
:1007F000636B23B194F838300BB101F051F810223B
:1008000028340021684605F0F1FA2046FFF7AEFDD6
:1008100069462046FFF7D4FF6846FFF7A7FD00F0C2
:1008200011FF04B010BD2DE9F04104461E460D46EF
:10083000174600F0F1FE636B23B994F838300BB122
:1008400001F018F804F12808A84506D04046FFF743
:100850008DFD29464046FFF7B3FF3A463346204612
:10086000FFF796FFBDE8F04100F0ECBE03689B681F
:1008700018470000094B10B5002203600023C0E9AF
:1008800002230023C0E90433044600F0CDFA0449F2
:10089000A06100F019FA204610BD00BFC4CF0000CF
:1008A0006D08000007B5009000F10801806900F0B4
:1008B0004AFA03B05DF804FB00F10801806900F01A
:1008C00071BA000010B5034B03600446FFF7F4FF54
:1008D000204610BDC4CF0000036801221B6900211F
:1008E0001847036800221B691146184713B50C46C8
:1008F00090F900104B1C04D10C490D48202200F047
:10090000ADFD01238B404FF0A04162B1C1F8083525
:100910000121019001F06EFD0198214602B0BDE871
:10092000104001F045BDC1F80C35F1E7D0CF000013
:1009300035D0000037B50D460446019201F014FD94
:10094000013507D0019A0021204603B0BDE83040B0
:10095000FFF7CCBF03B030BD0022FFF7EBBF0000B4
:100960002DE9F74F446894F83A100646002955D10E
:100970000168496888477168096A814205464DD017
:10098000206AE168A6682562281A01403848864234
:100990008C464FF0000E39D094F83BB0D4E90A5A97
:1009A0000027A1FB0001BBF1000F46D0CBF12008CE
:1009B00001FA08F820FA0BFCABF1200E21FA0EFE2A
:1009C0004CEA080C4CEA0E0C2D1821FA0BFEABF188
:1009D00020094AEB010ACBF120080EFA0BF10CFAC0
:1009E00009F941EA09012CFA08F80CFA0BF02B1A64
:1009F00041EA080100936AEB01030193DDE900235A
:100A0000BB4208BFB2420CD2C4E90A23D4E90C01AC
:100A100010EB0C0041EB0E01C4E90C0103B0BDE882
:100A2000F08F009B1CF1010C4EF1000E9A1B019BF4
:100A300063EB0703C4E90A23E8E732463B460CF0C0
:100A40003DF812EB050843EB0A09B94508BFB0456C
:100A500084468E4602D2C4E90A89D7E710F1010C18
:100A600041F1000EB8EB060269EB0703E2E700BFB5
:100A700040420F00824206D98A420BD9884294BF75
:100A8000002001207047884206D98A428CBF00208E
:100A90000120704701207047002070472DE9F74F73
:100AA000D0F8048098F83A300446002B78D198F8B2
:100AB0003930002B74D1FFF753FF65686B68002B4A
:100AC00071D0D5E90C01D3E90023994208BF9042C7
:100AD00005D323685B6903B0BDE8F04F1847161AC9
:100AE00063EB0107D5E90623BB4208BFB242D5F844
:100AF000109006D3AA68334B9A4211D1B14528BF52
:100B0000B1462A6AD8F820309144EA6809EA02021C
:100B1000934235D12C492D4840F21B1200F09EFC27
:100B200095F83B30EBB1A3F1200CC3F1200226FA7B
:100B300002F206FA03F007FA03F106FA0CFC244E5F
:100B400041EA0C01114380191E4A4FF000064FF094
:100B5000000346EB01010BF0B1FF814528BF814640
:100B6000CFE71B48A2FB06AB02FB07BB1AEB00005A
:100B70004FF00001134A4FF000034BEB0101EAE78D
:100B80002368019210461B69984723685B68984761
:100B9000019A0146D8F82000FFF76CFF002898D191
:100BA00003B0BDE8F08FD8F81030D8F82000D8F89E
:100BB0000C20184423681B69104003B0BDE8F04FB7
:100BC000184700BF40420F004DD0000097D00000F2
:100BD0003F420F002DE9F04F436893F8382085B06D
:100BE0000546002A63D193F83A30002B5FD10368A1
:100BF0001B6898472B68DB69984703682BB92D4918
:100C00002D4800931A4600F01BFE1F21012202FA14
:100C100001F4A3425FFA81FA02D00139F7D18A4682
:100C20004668321F1C2A05D9002324492448009312
:100C30001A46E8E71C4614F1FF384FF0000321493B
:100C40004FF0070743F1FF399740C1FB0789224660
:100C5000404649460BF032FF6B682A6803934FF019
:100C60000008C3E900885268894683469047039B81
:100C70000122186202FA06F66B6800210020013E8C
:100C8000C3E90A01C3E90C01C3E903672846C3E9C4
:100C900006B99C6083F83BA01A8783F83A80FFF777
:100CA0005FFE284605B0BDE8F04FFFF7F7BE05B080
:100CB000BDE8F08FBBD000000E010480D4D000004E
:100CC0000501048040420F0038B505460C46FFF789
:100CD00081FF00F0A1FC6B681C60BDE8384000F0AB
:100CE000B1BC70B5044600F097FC2368DB689847F8
:100CF000636893F83A201AB1BDE8704000F0A2BCD6
:100D0000012283F8392063685B68A3B12046FFF7AE
:100D100027FE65686E68D5E90C01D6E90023994283
:100D200008BF904207D3F3686B602B68002BEAD0B2
:100D3000B0689847E7E76368002283F839202046C7
:100D4000FFF7ACFED8E72DE9F7430A9D01900C466A
:100D50009046994600F060FC0198FFF701FE01986B
:100D6000A5604268C4E90089536800212BB9E3609B
:100D700061B95460FFF792FE0FE0D3E90067B9450F
:100D800008BFB045F3D31946DB68EFE7D2E90C237F
:100D90004B4508BF4245CC60ECD203B0BDE8F04300
:100DA00000F050BC38B505460C4600F035FC6A68CA
:100DB0005368A34209D1DB6853602846FFF76EFEF3
:100DC000BDE8384000F03EBC1346002BF8D0DA688E
:100DD000A242F9D1E268DA60F2E738B50446FFF7DB
:100DE000F9FE00F019FC2046FFF7BAFD6368D3E96D
:100DF0000C4500F027FC2046294638BD08B5FFF712
:100E0000ECFF08BD024B00221A7002F027B800BFA9
:100E1000E413002008B501F08DFF024B01221A7087
:100E200008BD00BFE41300200048704710D1000047
:100E3000024B1B680BB1024818477047E4000020C2
:100E400010D1000091F90C2091F9041001F062BD5D
:100E5000024B1B6803B11847704700BF48100020C1
:100E6000007B704738B50B4B03600023C0E90131AC
:100E700004460D4602730848FFF754FA45B1074B84
:100E80001A6862601C600448FFF74CFA204638BDBF
:100E90006560F8E74CD10000501000204C10002095
:100EA00010B5124B036004461148FFF73BFAA368E4
:100EB0002BB1104962680B68A34210D10A600E4B37
:100EC0000B481A68A24204BF00221A60FFF72AFAF0
:100ED000237B13B9201F00F0EFFE204610BD1946FA
:100EE0005B68A342FBD14A60E9E700BF4CD1000038
:100EF000501000204C1000205810002010B504465F
:100F0000FFF7CEFF2046102100F0D4FE204610BD92
:100F1000F8B5064614480D46FFF704FA134B1C6853
:100F200094B1A76877B1384605F06AFDA84209D1A7
:100F30002A463146384604F023FE18B90A48FFF71E
:100F4000F1F90FE06468EBE7072DF7D108482A466E
:100F5000314604F015FE0028F0D10348FFF7E2F90E
:100F6000044B1C682046F8BD501000204C10002097
:100F70003CD100005810002000207047002070472E
:100F8000036870B51B690122002104469847051EBD
:100F90000DDB236802221B69002120469847236845
:100FA000064629461B6900222046984735462846B2
:100FB00070BD000070B50E460025C0E900550F4910
:100FC0000446304605F08AFD3044206029462368F7
:100FD0001A782F2A07D10133236051B908490948EB
:100FE0002A2200F03BFA002AF7D0013301312360B6
:100FF000EDE7FFF78DFF6060204670BDB0D10000C7
:10100000B2D1000003D2000000687047406808B504
:1010100020B1FFF725FF431E5842584108BD10B5C7
:101020000446FFF7F3FF10B1606800B1043810BD4B
:10103000406808B520B1FFF713FFB0FA80F040090F
:1010400008BD10B50446FFF7F3FF10B1606800B1AA
:10105000043810BD4068003818BF01207047704741
:10106000704700207047F8B50368DB6D0D460446F5
:101070008F1898472E46BE42236806D05B6D16F83F
:10108000011B204698470130F5D1236820461B6E8E
:101090009847701BF8BDF8B50368DB6D0D46044634
:1010A0008F1898472E46BE42236807D09B6D204676
:1010B0009847431C02D006F8010BF4E7236820464A
:1010C0001B6E9847701BF8BD0020704700207047CA
:1010D000704700000F4B13B50022044640F8043B54
:1010E000FFF7C0FE0C4B23606C3363600023636129
:1010F0000A49204600F028FE0346606128B90090A6
:1011000002460749074800F09BFB00F06FFC2046B1
:1011100002B010BD5CD1000098D200000CD20000DB
:101120000FD20000190101800A4B03F10802743349
:1011300010B5044602604360406903F029FA064B8B
:10114000236020465C3340F8043FFFF7A9FE2046A9
:1011500010BD00BF90D200002CD2000038B503684B
:101160000446DB6D0D46984701226069002103F0BB
:10117000DFFD6169284603F053FC236805461B6EBA
:1011800020469847284638BD38B503680446DB6DCD
:101190009847606903F0CAFA606903F0D9FA2368D6
:1011A00005461B6E20469847284638BD0EB477B5D5
:1011B000036807AD044655F8046BDB6D984760691A
:1011C00001950122002103F0B3FD019A60693146C7
:1011D00009F028F8236805461B6E204698472846E4
:1011E00003B0BDE8704003B0704700004FF010033B
:1011F00000F00CB84FF0200300F008B84FF03003B7
:1012000000F004B84FF0400300F000B8EFF308809E
:101210004FF0040172460A4201D0EFF309809C4668
:10122000254B196802680A60043142680A6004317B
:1012300082680A600431C2680A600431F0C147461E
:101240000F6004314F460F60043157460F60043180
:101250005F460F60043102690A60083142690A6022
:10126000043182690A600431C2690A6004310346AC
:1012700020334FF40076324200D0043375464FF0ED
:101280001006354200D148330C46103C2360EFF382
:1012900009820A600431EFF308820A600431724661
:1012A0000A600431EFF314820A606046024B196849
:1012B00000F07AF8FEE70000CCD40000F0B52C4E28
:1012C0002C4F85B000243546214656F8042B38466D
:1012D000013400F087F90D2CF6D1AB6C02936B6CE6
:1012E00001932B6C244C0093D5E90E23696B2348A2
:1012F00000F078F92168224800F074F9E16AA26AE6
:10130000A36AA06A266BE76B000CCDE90167009029
:10131000C3F307231B48D2B200F064F9A36A1E0688
:1013200003D5616B184800F05DF9A36A180403D572
:10133000A16B164800F056F9EB6C190712D514484A
:1013400000F050F92B6DDA070FD5124800F04AF97A
:10135000EB6C5B074CBF1048104805B0BDE8F0408F
:1013600000F040B90E4800F03DF90E48EEE700BF2E
:10137000E81300200CD3000000ED00E01AD30000B9
:1013800069D3000077D30000C6D30000D4D3000097
:10139000E2D30000F1D3000021D400002DD40000DE
:1013A00011D40000FED3000037B504460D461A489C
:1013B000012100F08BF868BB184800F013F9302CBD
:1013C00019D0402C1CD0202C1FD11548154C00F0F2
:1013D00009F9154800F006F9FFF770FF134800F00F
:1013E00001F90D4B00221A700023114900932A467F
:1013F000204600F025FA0F480F4C00F0F3F8E8E71C
:101400000E480F4C00F0EEF8E3E70E480E4C00F0EB
:10141000E9F8DEE70024E7E73C14002039D40000B7
:1014200062D400003E01FF808FD400009AD40000F7
:10143000B9D4000071D400003F01FF807AD40000CD
:101440004001FF8085D400003D01FF8004F08EB88C
:1014500004F06CBD03F066BB02F0FEBF07B50B469F
:10146000009201460022014800F0EAF94401FF80A1
:1014700003460122D3E84F0FC3E8412FC0B2002931
:10148000F8D17047D0E85F3F5B18C0E8523F002AB0
:10149000F8D198B27047034653E8000F401843E86C
:1014A0000002002AF8D17047D0E85F3F5B1AC0E81D
:1014B000523F002AF8D198B27047034653E8000F14
:1014C000401A43E80002002AF8D17047D0E84F3FA5
:1014D000C0E8421FD8B2704708B50249024820222E
:1014E000FFF7BCFFD0CF000035D0000083B500F07F
:1014F00093F8112101A8FFF72FFA1E4D01240426AD
:101500004FF0A0479DF904305A1C01D1FFF7E4FFCA
:1015100004FA03F3C7F80835284600F0C4FC9DF927
:101520000430581CF2D004FA03F3C7F80C352846EF
:1015300000F0B9FC013EE5D1DFF83C8004264FF015
:10154000A0479DF90430591CE0D004FA03F3C7F812
:101550000835404600F0A7FC9DF904305A1CD5D050
:1015600004FA03F3C7F80C35404600F09CFC013E3A
:10157000E7D1C4E7F0490200801A060007B501462A
:1015800000220190022000F0D5FA00F045F8019900
:10159000084605F035FA01990246022000F0CAFA21
:1015A00003B05DF804EB00F04DB8000000B5A3B047
:1015B00002460B4601A8842108F0BAFE832806D90A
:1015C000074B1A681B79CDF883208DF887300028E7
:1015D00002DD01A8FFF7D2FF23B05DF804FB00BFD6
:1015E000D0D400000FB407B504A951F8040B019141
:1015F000FFF7DCFF03B05DF804EB04B07047EFF3D6
:101600001080C04300F001007047EFF30580003800
:1016100018BF01207047000008B500F0E7FD064A3A
:101620001368591C04D1054905483F22FFF716FFEE
:101630000133136008BD00BF5C100020D5D400004A
:1016400029D50000044A136823B1013B13600BB98C
:1016500000F0D4BD704700BF5C10002008B50B48F7
:10166000FFF706FF28B1FFF7D7FFBFF34F8F20BF6B
:10167000FDE7FFF7CAFF08B1FFF738FFFFF7BFFF2D
:101680000028F9D0012000F0ACF900BF9C10002028
:10169000F0B5234D8FB035EA200528BF05460E462C
:1016A00017460021302202A804F0A0FB1D4B019533
:1016B0002B44012B01AC039605D91B4B9D4202D054
:1016C000033B9D4229D1F36B0293736B0893FFF7A1
:1016D000A3FF164A13680133012B136009D1264674
:1016E0000FCE134D0FC50FCE0FC50FCE0FC53368EC
:1016F0002B600FCC0F4D0FC50FCC0FC50FCC0FC5F6
:1017000023682B600C4B1B6813B1A5F13000984780
:10171000FFF798FF00200FB0F0BD02970894D6E7BE
:101720000101FF80C2FE007F4001FF8060100020A9
:1017300068100020A0100020641000202DE9F04166
:101740002E4C0E462168C1F34173032B0CBF4D4252
:101750008DB2C1F307438046174629482A46FFF752
:1017600041FF6FF498731D44132D0FD8DFE805F087
:101770000A2D3033363C393F0E0E0E0E0E0E0E0E75
:101780000E0E0E42A1681F48FFF72CFF4046FFF7E0
:10179000F5FE61681C48FFF725FF4EB11B48FFF7B7
:1017A000EDFE3046FFF7EAFE19483946FFF71AFF0B
:1017B000A1681848FFF716FF21681748FFF712FFC6
:1017C000BDE8F0411548FFF70DBFA1681448DBE7FD
:1017D000A1681448D8E7A1681348D5E7A168134861
:1017E000D2E7A1681248CFE7A1681248CCE7A16808
:1017F0001148C9E71148FFF7F5FEC7E7A010002020
:101800005AD50000ABD5000053D6000064D60000C6
:101810006CD6000070D6000084D60000CED6000042
:10182000C1D50000D1D50000E0D50000F3D50000FF
:1018300007D600001BD600002AD6000040D60000C4
:1018400080B506460C460A480121F04617461D465B
:10185000FFF73CFE48B9424639463046FFF718FFCD
:10186000029A29462046FFF769FFFFF7F7FE00BFFF
:101870003C14002013B5074C01212046FFF702FE5F
:10188000034628B90090228803490448FFF7D8FF8F
:1018900002B010BDD4100020E8D60000230104805F
:1018A00013B5094C01212046FFF7FEFD4FF6FF73EB
:1018B000984206D100232288044905480093FFF787
:1018C000BFFF02B010BD00BFD41000200AD7000037
:1018D000240104806FF01C0070476FF01500704702
:1018E000012070470020704770470000F8B5074E90
:1018F00015460C468F18BC4205D014F8011B304623
:1019000001F09CF9F7E72846F8BD00BFF41100206C
:1019100038B511F001048DB205D0084801F0C4F9C2
:10192000041E18BF0124EB0605D5044801F0DCF9BC
:1019300008B144F01004204638BD00BFF411002067
:1019400010B5044603F00AFE204610BD10B50C4643
:101950002AB1044801F034F92070012010BD10466E
:10196000FCE700BFF411002038B5084B0360084BBA
:101970001B680446154633B90648FFF763FA054865
:10198000294601F075F8204638BD00BFDCD70000BD
:1019900060120020F41100200020704700207047E2
:1019A00008B5012000F01DF8074A084913681844DB
:1019B000884289BF064B10600C224FF0FF308CBF6D
:1019C0001A601846704700BFE801002000F00020B0
:1019D0006414002008B508B1FFF788FDFEE7012078
:1019E000704708B5FFF7F6FF01207047002104F0AB
:1019F0004DBD7047704708B5FFF7FBFF08BD08B540
:101A0000FFF7F8FF08BD000008B5037803F00303F3
:101A1000012B10D0037803F00302012A0BD02AB166
:101A20000649074840F29D62FFF718FD43F00203A4
:101A30000370012008BD0020FCE700BF28D700008C
:101A40007ED7000008B5037803F00302022A05D010
:101A50000549064840F2A662FFF700FD23F00303A4
:101A600043F00103037008BD28D700009CD7000095
:101A70003F2870B504462EDC184D55F820305A1C0E
:101A800013D1022811DCFFF789FF034658B920461D
:101A9000FFF782FF034630B9114E3378BFF35B8FF7
:101AA000DB0704D50F4B45F82430184670BD30468F
:101AB000FFF7AAFF0028F5D00B490A484FF4165249
:101AC000FFF752FF3046FFF7BDFF084A08490548B7
:101AD000FFF785FFE6E70023E7E700BFE800002007
:101AE000D8100020E410002030D80000E0000020D2
:101AF000E918000038B50546FFF7BAFF0B4B002484
:101B000043F8254030B902F0D7FC092303604FF0B9
:101B1000FF3038BD03685B699847051E04DA02F0A0
:101B2000CBFC6D420560F2E72046F2E7E8000020BA
:101B3000FFF7E0BF13B5CDE90021FFF799FFDDE91D
:101B4000002140B902F0B8FC092303604FF0FF34D4
:101B5000204602B010BD0368DB689847041EF7DA20
:101B600002F0AAFC64420460F0E708B5131E07DA2D
:101B700002F0A2FC162303604FF0FF33184608BDA5
:101B8000FCD0FFF7D7FF40EAE073F7E713B5CDE9E4
:101B90000021FFF76DFFDDE9002140B902F08CFC68
:101BA000092303604FF0FF34204602B010BD0368E4
:101BB0009B689847041EF7DA02F07EFC64420460DA
:101BC000F0E7002A08B503DBBDE80840FFF7DEBFF9
:101BD00002F072FC162303604FF0FF3008BD10B511
:101BE000FFF746FF044628B902F066FC09230360AC
:101BF000204610BD0368DB699847041EF8DA02F03E
:101C00005BFC644204600024F2E737B54023CDF862
:101C10000100054668468DF8003002F0F9FE0446E2
:101C200030B12846FFF7DBFF10B12046FFF7DEFE9C
:101C3000204603B030BDFFF7D2BF13B5CDE9002178
:101C4000FFF716FFDDE9002140B902F035FC09235A
:101C500003604FF0FF34204602B010BD03681B69DB
:101C60009847041EF7DA02F027FC64420460F0E7AC
:101C7000FFF7E3BF38B50D46FFF7FAFE044630B96B
:101C800002F01AFC092303604FF0FF3038BD0368EF
:101C9000DB699847002814BF4FF400534FF400430A
:101CA0006B60236820469B6A984728610020EDE717
:101CB000FFF7E0BF03F052BC10B504460848FEF73A
:101CC00031FB084A4023002152F8040BA04208BF10
:101CD00042F8041C013BF7D10148FEF723FB10BD7D
:101CE000DC100020E800002010B50F48FEF71AFBBA
:101CF0000E4B032453F824206AB10134402CF9D14F
:101D000002F0DAFB182303600748FEF70BFB4FF0E5
:101D1000FF34204610BD4FF0FF32034843F8242023
:101D2000FEF700FBF5E700BFDC100020E800002014
:101D300010B50446FFF7D8FF0028A4BF014B43F8B5
:101D4000204010BDE800002073B506460191FFF762
:101D5000EFFF051E13DB0199FFF757FF044630B96B
:101D6000084B53F82520964204D143F8250020461D
:101D700002B070BD02F0A0FB09230360F7E7002466
:101D8000F5E700BFE80000200EB42DE9F04187B070
:101D90000190FFF7A9FF041E13DB002301990393B1
:101DA00004A8FFF707F904A8FFF754F91B4E0546EE
:101DB00068B902F081FB1323036046F824504FF00A
:101DC000FF34204607B0BDE8F04103B0704704A8D7
:101DD000FFF72EF9074604A837B1FFF732F9039051
:101DE000039B46F82430ECE7FFF719F90546002875
:101DF000DFD0036804A8D3F80880FFF705F90D9B2E
:101E0000024603A92846C04705460028E8D002F04C
:101E100053FB6D42056046F82470D0E7E8000020CF
:101E200070B50E461549054604F07EFC044618B907
:101E3000FFF71EFE204670BD1149284604F074FCD1
:101E400020B90120FFF714FE0124F3E70D492846CD
:101E500004F06AFC20B90220FFF70AFE0224E9E739
:101E60002B78402B02D1D5F80140E3E726F400415E
:101E70002846BDE87040FFF787BF00BF50D800007C
:101E800057D8000048D800007047704708B500F0E8
:101E90001FFBFFF7FAFF08BD08B5FFF7F5FFBDE828
:101EA0000840FEF7B7B970B50446FEF7BDFF064619
:101EB000FEF7A4FF05463046FEF7A0FF431BA342F2
:101EC000F9D370BD0749084A084B9B1A03DD043B50
:101ED000C858D050FBDC0648804706488047064873
:101EE00000470000E0DC0000E0000020E00B0020E4
:101EF000951F0000A52400001D010000FEE7FEE77D
:101F0000FEE7FEE7FEE7FEE7FEE7FEE7FEE7FEE7A9
:101F1000024B103043F82010704700BF0000002033
:101F20000C4B1B78062B10D10B4B1B681A070CD1DE
:101F30000A4B186800F0F003302B08D000F0E000E6
:101F4000A0F14003584258417047002070470120DB
:101F5000704700BFE00F00F0E40F00F0E80F00F062
:101F6000094B1B78062B0CD1084B1B681A0708D1AC
:101F7000074B186800F0F000A0F1300358425841B8
:101F800070470020704700BFE00F00F0E40F00F042
:101F9000E80F00F008B5FFF7C3FF28B17F4B804A78
:101FA0001B68C3F304231360FFF7DAFF10B17D4B06
:101FB0007D4A1A60FFF7B4FF28B17C4B7C4A1B684E
:101FC000C3F342331360FFF7CBFF20B1794AD368E4
:101FD00023F08073D360FFF7A3FF40B14FF080433D
:101FE0000022C3F80C21C3F81021C3F83825FFF7ED
:101FF000B7FF10B1704B03221A60FFF7B1FF40B179
:102000006E4B05221A6001229A6700229A603F22D5
:102010005A606B4B1B78062B50D16A4B1B68190713
:102020004CD1694B1B6803F0F003502B46D14FF0A5
:102030008052664BD2F80414C3F82015D2F8081465
:10204000C3F82415D2F80C14C3F82815D2F81014CC
:10205000C3F82C15D2F81414C3F83015D2F818149C
:10206000C3F83415D2F81C14C3F84015D2F8201464
:10207000C3F84415D2F82414C3F84815D2F828142C
:10208000C3F84C15D2F82C14C3F85015D2F83014FC
:10209000C3F85415D2F83414C3F86015D2F83814C4
:1020A000C3F86415D2F83C14C3F86815D2F840148C
:1020B000C3F86C15D2F84424C3F87025FFF730FF3D
:1020C00028B1434B434A1B6803F04F031360FFF7EB
:1020D00027FF48B14FF08043D3F80024D20744BF14
:1020E0006FF00102C3F800243B4AD2F8883043F471
:1020F0007003C2F88830BFF34F8FBFF36F8F4FF07C
:102100001023D3F80022002A03DBD3F80432002B7B
:102110002FDA324B0122C3F80425D3F80024002A19
:10212000FBD04FF010221521C2F80012D3F8002482
:10213000002AFBD04FF010231522C3F80422274BAE
:102140001A46D3F800140029FBD00021C3F8041567
:10215000D2F80034002BFBD0BFF34F8F1E49204B29
:10216000CA6802F4E0621343CB60BFF34F8F00BF35
:10217000FDE71C4B1C4A1A604FF0804301220021EE
:10218000C3F81825C3F804119A60D3F80421002A73
:10219000FBD0124B0122C3F8402508BD24030010D8
:1021A0004035014074C007400DF0ADBA4402001044
:1021B0003C050040F0ED00E0A00500401056004056
:1021C000E00F00F0E40F00F0E80F00F000C0004066
:1021D00058020010E40E004000ED00E000E0014075
:1021E0000400FA05EC0100200090D00302480378B7
:1021F0000BB100F051BE7047F0010020024B0122EC
:1022000000201A7000F056BEF001002000F5E072C8
:102210004FF0A04353F82230C3F30143032B0C4B80
:102220001B6823FA00F30CBF01210221DB070ED546
:10223000084B01291B5C02D15A0602D470479B0649
:1022400005D5054B054A1B6852F820001847704712
:102250008C1100206811002090110020E81000204F
:10226000094A1268C240D20703460CD5074A115CDE
:10227000C1F30012890702D512B901F0EBBB12B10C
:10228000184601F021BD7047881100206811002018
:10229000F7B5314D314F2B5C0126C3F3001113F01C
:1022A000010F04460A4606FA00F601D100294FD074
:1022B0002B5D980701D5002A38D09DF8063023F011
:1022C00003038DF8063003238DF804302B5DC3F330
:1022D0008101012901D003291AD18DF80510DAB145
:1022E00001A91F4A204601F017FC1E4B1B68E34062
:1022F000D90708D52B5D5A0601D49B0603D50121C9
:10230000204601F07BFC3B681E433E6003B0F0BDFD
:1023100000238DF80530E2E79DF8053004F5E07400
:102320004FF0A0429B0042F82430ECE74FF0A0436E
:102330008DF80610D3F80435ADF80420E34003F01F
:10234000010301A920468DF8053001F021FBDAE7F1
:102350003B6823EA0606D8E76811002088110020B0
:102360000D2200008C1100204B1C10B5044601709A
:1023700014D0C9B21F2904D909490A485322FFF7CA
:102380006DF809490620FFF7C3FD01F0C1FA0749BE
:1023900094F900208B5C43F001038B5410BD00BF07
:1023A00068D80000D7D80000313D00006811002037
:1023B00038B5044690F90000431C0D4604D10A4983
:1023C0000A48B222FFF74AF8C0B2FFF749FF94F972
:1023D0000000074B1A5C65F383021A54BDE83840CD
:1023E000C0B2FFF755BF00BF68D8000035D000006D
:1023F0006811002038B5044690F90000431C0D46D2
:1024000004D10A490A48BD22FFF728F8C0B2FFF7F5
:1024100027FF94F90000074B1A5C65F341021A5438
:10242000BDE83840C0B2FFF733BF00BF68D8000036
:1024300035D0000068110020184B70B502461C46CC
:10244000002093F90060751C13D093F90150B5F189
:10245000FF3F0ED0964219D18D4217D104EBC00038
:102460000F4B406803F8102003EB4003461C5970E3
:1024700012D10B4B93F9000093F90140904208D020
:102480002040013004BF1A70597004E00130083355
:10249000D7E7A142F4D1002070BD00BF60D8000092
:1024A000F101002010B5074A074811460023013307
:1024B00050F8044B41F8044B372BF8D1034B9A608A
:1024C00010BD00BF000000200000000000ED00E093
:1024D00007B5052101A8FEF73FFA9DF90420531C1A
:1024E00004D1074907482022FEF7B8FF0123934093
:1024F0004FF0A042C2F80C3503B05DF804FB00BFFA
:10250000D0CF000035D000000023435082B04358A4
:102510000193019B02B070470246104808B5104B6A
:10252000C0F808334FF4A671FFF7EEFF4FF488713F
:10253000FFF7EAFFD0F8003223F02003C0F80032A2
:10254000084B282101FB023301221A74002283F870
:1025500024201023C0F8043308BD00BF0020004031
:1025600010000800C8110020F8B5044628B94949F0
:10257000494840F24E22FEF771FF41684E1C0AD0D6
:102580004FF0A04201238B40C2F8083501F5E073FB
:10259000032042F82300A068451C1FBF00F5E0732C
:1025A0004FF0A042002542F823503C4B2268C3F86C
:1025B0000C15C3F81405217D01290FD1E168481CD1
:1025C0001FBF01F5E0704FF0A045002645F82060E0
:1025D0004FF0FF30C3F80805C3F81015304D2169DE
:1025E000282606FB02531A6A914248D0187F01F050
:1025F000C5FC20B140F27B2226492A48BBE723686C
:1026000006FB03531B6A013302D0206901F022FA52
:102610002069431C2DD0244901F0BAF9082806D1BD
:10262000206901F017FA2049206901F0B1F910B1D1
:1026300040F29222E0E722682069282606FB025237
:10264000177F01F04BFA19490246384601F060FC49
:1026500010B14FF42672CFE7236806FB0353187FAF
:1026600001F076FC10B140F29B22C5E7206901F031
:1026700023FA2368282202FB035523692B62227D5B
:10268000637D1343054AC2F86C35A369C2F824354B
:10269000F8BD00BFF6D8000067D900000020004058
:1026A000C81100206BD900007ED900001021004025
:1026B0002DE9F0412823164F164CDFF85C80C4F852
:1026C000088303FB00F57E190435706900F01DFCDA
:1026D0002023B3614FF4A6712046FFF715FF4FF496
:1026E0008871FFF711FFD4F8003243F02003C4F8DB
:1026F00000320023B3743D440122C4F83455C4F8B9
:102700003825337486F82430C4F80483BDE8F0819A
:10271000C8110020002000401000080070B50446D9
:1027200028B9194919484FF43F72FEF797FE05681A
:10273000174E28226A43B118B258824202D192F849
:102740002C3083B12046FFF70FFF28236B43284628
:10275000F450002384F82C3094F82D304BB1BDE8B0
:102760007040FFF7D9BE92F82D200B7C3AB92BB1FF
:102770002846FFF79DFF074B01221A6070BD002B12
:10278000FCD12846EBE700BFF6D8000067D900006F
:10279000C81100200020004010B5184B1A787AB1FB
:1027A00000221A70164BD97BD9B1DA735A731B68A1
:1027B0001A6B2AB1596B490702D5042199639047D6
:1027C000104B1A78CAB1002119700D4B59741B684F
:1027D0001A6A92B1586A80070FD5BDE81040D869CF
:1027E000104759731B681A6A002AE9D0596ACC0746
:1027F000E6D5D86901219047E2E710BDF11100202C
:10280000C8110020F01100202DE9F3413C48D0F818
:102810001031ABB14FF48871FFF776FE394B1E7C57
:102820001C46002E3DD000221A749A731B68DA6B86
:1028300032B1196CC80503D54FF4807159649047C3
:102840002F48D0F84C31CBB1D0F81031B3B94FF498
:10285000A671FFF759FE2B4A937C83F001030433E2
:102860001344C0F834350123C0F83835106A411CD0
:1028700004D09169032940D901F03EF92048D0F8ED
:1028800020315BB14FF49071FFF73EFE1E4B0122E9
:102890001A701E4B4FF48012C3F8002102B0BDE83D
:1028A000F0819D7C85F00103A374D0F83C75002F66
:1028B000C6D00435254404F11808606901A900F068
:1028C00046FB68B115F8013B037001A9606900F08F
:1028D00068FB013601214046FEF7EFFDB742ECD11F
:1028E000637C002BACD10A4A012313706374074B3D
:1028F0004FF48012C3F80021A2E782F82430BDE72C
:1029000000200040C8110020F111002000E100E08B
:10291000F01100202DE9F84388461746044628B9EF
:102920004449454840F24332FEF798FD434B444D3D
:102930001A78002A39D000221A7001F01FF808B95D
:1029400000F0E6FF3F4E4049DFF820911420FFF7EA
:10295000DFFAE02386F814334FF48013C6F8803191
:102960003A49336021220123484600F0BBFA002394
:10297000C5F8149036482B6001F09CFA814620B1CE
:102980002C4934484FF45972CEE7334A33494FF05B
:10299000FF332B620220C2F80833FFF7B9FA042391
:1029A00086F80293C6F88031336039464046FFF717
:1029B00043FD282202FB00F3EA18206096680136E6
:1029C000012E96601CD124480822C0F800250C3343
:1029D0004FF0FF32C0F80C251D44C0F814254FF00D
:1029E0008052C0F824254FF49071C0F84455C0F8C7
:1029F0004865FFF789FD8660D0F81C31002BFBD0BD
:102A0000174BA3614FF0FF33C4E903330023A382C4
:102A10002362144B9C4208BF134A4FF00103C4E9E0
:102A2000018708BF136084F82C302046BDE8F843C6
:102A3000FFF774BEF6D8000067D90000F30100204C
:102A4000C811002000E100E0992700009411002047
:102A5000E41100206BD9000000200040092800008C
:102A600000502700F411002060120020B81100204F
:102A700008B528B93149324840F20E42FEF7EEFC63
:102A8000B1F5166F35DBB1F5965F35DBB1F5165F45
:102A900035DBB1F5615F34DBB1F5964F33DBB1F572
:102AA000E14F32DBB1F5164F31DBB1F5614F30DB71
:102AB000B1F5963F30DBB1F5E13F30DBB1F5613F79
:102AC0002FDB204B99422FDDB1F5E12F2FDBB1F544
:102AD000612F2FDB1C4B9942D4BF4FF070614FF038
:102AE000805183698B421EBF0123816180F82C30A5
:102AF00008BD4FF49E21F4E74FF41D21F1E713497F
:102B0000EFE71349EDE71349EBE71349E9E7134909
:102B1000E7E74FF41D01E4E74FF46B01E1E71049EB
:102B2000DFE74FF0EB71DCE74FF06C71D9E74FF066
:102B30008061D6E74FF0E861D3E700BFF6D8000028
:102B400067D900008FD003003F420F0000B0130090
:102B50000050270000F03A0000A04E0000C07500B1
:102B600000903A0108B528B9044905484FF49C6221
:102B7000FEF774FCC0E9072108BD00BFF6D80000CD
:102B800067D9000010B528B90B490C4840F2F5424E
:102B9000FEF764FC012908BF0124416A18BF022422
:102BA0002AB121434162BDE81040FFF7B7BD21EAD9
:102BB0000401416210BD00BFF6D8000067D90000D3
:102BC000F7B528B91A491B4840F21252FEF746FCE5
:102BD0000022056880F82D20174CFFF79FFD282262
:102BE00002FB054256697289F38892B29BB29A42FF
:102BF000F9D001A9304600F0E4F901A907463046B2
:102C000000F00AFA28235D4305F118000121204451
:102C1000FEF741FC631993F824202AB10022186AB8
:102C200083F8242000F068FF387803B0F0BD00BFBF
:102C3000F6D8000067D90000C811002038B50C464E
:102C400028B91549154840F24352FEF707FC0568BC
:102C5000FFF764FD124AD2F81C31002BFBD010485C
:102C60004FF48E71FFF750FC0E4828236B43C118B8
:102C70000C330C7303440124C2F844350848C2F8ED
:102C800048454FF49071FFF73FFC4FF48073C2F852
:102C90000433946038BD00BFF6D8000067D9000047
:102CA00000200040C811002010B528B90B490C487D
:102CB00040F26B52FEF7D2FB002280F82D20046810
:102CC000FFF72CFD074B282202FB04346369588967
:102CD000DB88C01A18BF012010BD00BFF6D8000065
:102CE00067D90000C811002008B528B90B490C4865
:102CF0004FF4B162FEF7B2FB03680A4A282101FBD8
:102D000003235B7BDBB233B9074BD3F81C010038DC
:102D100018BF012008BD0020FCE700BFF6D8000066
:102D200067D90000C811002000200040004870470B
:102D300084D9000073B5214E214A3178214C51B11C
:102D40000023136013680093009B4FF48033C4F892
:102D5000083302B070BD1C4B01251D604FF4803359
:102D6000C4F80833D4F8043523F00303C4F8043559
:102D7000D4F8103523F00F0343F00403C4F81035E2
:102D8000D4F8083543F00303C4F80835C4F84015F7
:102D90001160136801930D49019B0920FFF7B8F8F2
:102DA0000B4B402283F809234FF40072C3F88021B3
:102DB0001A60084B25601D603570CAE76412002058
:102DC000409100400090004004900040310E00000F
:102DD00000E100E044900040024B01221A60D3F869
:102DE000000570474490004013B50446FEF714FCFC
:102DF0000A4AC2F84045D2F8043313F4803308D1AC
:102E000007490B600B680193019B4FF48033C2F8B4
:102E1000043302B0BDE81040FEF714BC009000403F
:102E200040910040024B4FF40072C3F800217047FC
:102E300000E100E0024B4FF48032C3F808237047F2
:102E400000900040044B002282B01A601B6801937E
:102E5000019B02B0704700BF409100400A4A012325
:102E60001360D360094B4FF48032C3F80823084B3A
:102E70004FF40072C3F88020BFF34F8FBFF36F8F02
:102E8000044B00221A7070470490004000900040EC
:102E900000E100E06412002072B6054A1378191EA2
:102EA00018BF01210133017013700020704700BF6B
:102EB00065120020044B20B11A78013A1A700020E4
:102EC0007047187062B6FAE76512002010B5034625
:102ED00053E8002FA2EB010043E8000494F0000F38
:102EE000F6D110BD10B561B1B2FBF3F403FB1424AD
:102EF000A4B244B9C0E9001484608281C381204631
:102F000010BD0E20FCE70920FAE782B050E8022F3E
:102F1000C188B2EB324F4FF0000317BF92B241EAC3
:102F2000014142EA014104E04268B2EB324F08BF7E
:102F3000012340E80212002AE8D18DF807309DF8FD
:102F40000730002B0CBF1120002002B0704737B5AE
:102F500050E8013F9DB2C48925448489A54228BF19
:102F60002D1B0489A54202BFBFF32F8F002207E06B
:102F7000C5EA030540E80154002CE9D14FF00102F5
:102F80008DF803200193019B9DF803200B6002F054
:102F9000FF0322B10B880068184403B030BD184607
:102FA000FBE70A884B889A4209D150E8012FC2EA10
:102FB000024240E80123002BF7D101207047002096
:102FC000704737B550E8023F1FFAA3F5C488A54201
:102FD00002BFBFF32F8F00220DE0C48925448489EE
:102FE000A54228BF2D1BC3EA054540E80254002C2A
:102FF000E8D14FF001028DF803200193019B9DF869
:1030000003200B6002F0FF0322B14B8800681844D4
:1030100003B030BD1846FBE70A884B889A4209D1B5
:1030200050E8022FC2EA224240E80223002BF7D1E7
:10303000012070470020704770B5064D06460024F9
:1030400055F8043B0BB1304698470134042CF7D1B6
:1030500070BD00BF741200200B4A0C4B5188142025
:1030600000FB0131CB6833B904204968107001229C
:10307000074800F0EABB07490523137002238B8041
:10308000012209680023F3E78C120020A41200201B
:10309000CC0B0020E012002007B500230549009367
:1030A000054A09680548082300F0A1FB03B05DF854
:1030B00004FB00BFE012002098D90000CC0B0020D8
:1030C00007B5002301460093034A0448082300F093
:1030D0008EFB03B05DF804FB90D90000CC0B002000
:1030E00013B500230C4600930146084A0848042300
:1030F00000F07DFB38B90749142303FB04140123B6
:10310000237402B010BD0E20FBE700BF8CD9000075
:10311000CC0B0020A412002037B50A480A4B4268A5
:103120009C88196853880325033305709BB20020DF
:1031300000909B0001EB8401044800F058FB03B0B1
:1031400030BD00BF8C120020E0120020CC0B00200C
:103150004388033300EB8303994209D382884FF6F7
:10316000FF739A4206D00088B0FA80F04009704799
:10317000022070470120704738B5144B14220D46C9
:1031800002FB00302B68446804F58051A3B15C88D1
:10319000033403EB84048C4215D22368013312D02C
:1031A0002046FFF7D5FF012808D002280BD00028C1
:1031B000F1D12C60012038BD0834ECE7638803337B
:1031C00004EB8304E7E70020F5E700BFA41200202A
:1031D000426873B504460D4662B3234BD9688A42F0
:1031E00028D31B699A4225D812F0030322D11F4924
:1031F0000089098988421DD120689168884219D1C7
:103200001B494868824203D900F5805082420DD3A1
:1032100089698A420CD901F580518A4208D201227B
:103220002A80B3FA83F0400902B070BD1A46F7E76E
:103230000A23F6E700232B801E460196288801A961
:10324000FFF79AFF30B92B8801339BB2012B2B80FB
:10325000F3D9E9E7019B226899689142EED1636056
:10326000024B1B892381DFE7CC0B00208C1200204E
:10327000A41200202DE9F8431C461C4B1B7806467F
:103280000F4615466BB372B36CB3DFF868804FF02E
:103290001409A388012B01D90A2020E009FB03F3BC
:1032A00018F803302BB9A0882146FFF765FF20B935
:1032B0002060A3880133A380EBE723681EB19988BF
:1032C00032889142EFD11FB119883A889142EAD1F0
:1032D0009A68C5E90023064B1B892B810020BDE8B5
:1032E000F8830220FBE70520F9E700BF84120020E5
:1032F0008C120020A412002008B5074B5888191D15
:10330000FFF73AFF18B1BDE80840FFF705BFBDE879
:103310000840FFF7A1BE00BF8C1200202DE9F04F3E
:10332000A14FDFF8A89289B00646B8463B6823B99A
:103330009E484946FFF745FE3860D8F80050297886
:103340004B1E052B07D8DFE813F021007900790028
:10335000090109015D010F241422002103A802F0D4
:1033600045FD41F61D539C4208BF0024D8F80030AB
:1033700004941A78013A052A00F2EF81DFE812F08E
:10338000DB01DF01FF010F021B02250226B1884B82
:1033900000225A600124DFE72B79032B1DD8DFE8D8
:1033A00003F015022A3583490B78022B084619D001
:1033B0000B7D022B4FF0010316D114225343C21888
:1033C0000020C8545068FFF77BFE03E001232B71F7
:1033D000FFF762FE002800F0BC80754B00225A60A7
:1033E0000E24B9E70023E8E7714A13700023536005
:1033F00041F61D54B0E770497048002302222B713A
:103400008A800968012200F020FAE3E76A4C00266E
:103410002E712068674DFFF753FE694BD4F800C04A
:103420005A8814235343EA18EE5451682160A18846
:10343000C2F804C011810222A280CBE7B5F814A023
:10344000AA7DDFF870B1AEB1022AEB8806D914214B
:1034500001FB0AB1DA1C088902440A81142202FB2A
:103460000ABAC3F57F43BAF80A20FD331344AAF819
:103470000A308FE7142303FB0AB318895C6804EB56
:103480008004062A68D8DFE802F0274D35431D592D
:10349000040041F61D54AA7DEB88022A06D91421A6
:1034A00001FB0AB1DA1C088902440A81142202FBDA
:1034B0000ABAC3F57F43BAF80A20FD331344AAF8C9
:1034C0000A3049E73F48404900234360AB69036045
:1034D000FFF77EFE002859D00223AB75002300932E
:1034E0000423EA182146354800F081F9002830D03D
:1034F0000E24D0E72B69002B14BF03230123AB75E7
:103500000023009305F10C02042304F10801EAE70B
:103510000123AB750022EB8800922A699B0004F11D
:103520000C01E0E703290CBF05230623AB7500233C
:103530000093042305F10802E118D4E70623AB75D4
:10354000214B19881F4B5868FFF7CAFD0446002815
:10355000A1D109B0BDE8F08F0F249CE7002E7FF4C5
:1035600019AF2B79012B33D0022B3FF441AF002B45
:103570007FF4F1AE02232B710DF10A01EB68039386
:1035800003A8CDE90466FFF723FE08B90A24E3E6A1
:103590000498BDF80A108388EB8003882B81FFF71D
:1035A0009FFD044627E000BFA0120020CC1200209F
:1035B00084120020A4120020E0120020CC0B002076
:1035C0008C12002068120020E81200209C120020BB
:1035D000DFF810A203AA53463146A81DFFF74AFEA2
:1035E000044660B9BAF804100498FFF779FD044660
:1035F0000A2C3FF4FDAE002C7FF4AEAEA9E7CAE979
:103600000066F5E7002E7FF4C5AE714B1A7BBAB1A8
:103610001E731A78013A062A3FF69DAE01A151F8B1
:1036200022F000BFCB360000F13600000F3700005B
:1036300015370000573300001B3700002D370000FE
:103640001A78072AE5D801A151F822F06D3600005A
:10365000133600001336000093360000A736000032
:10366000C7360000C73600008F3600001A89594956
:1036700001321A8100225A801A730A78B2FA82F251
:1036800052099A720A7DB2FA82F25209DA72012262
:1036900007E0514958688A884088033202448A808A
:1036A00002221A70B5E74B4C5A884B49142505FB8A
:1036B00002420868546850608888108102228A801B
:1036C0000C600622EDE70722EBE79A7A32B9DA7A44
:1036D0008AB900221A705A805A6089E63D49002250
:1036E0009A72CA68002AF2D1097C0029EFD05A8068
:1036F000FFF702FE55E70022DA72364A116A002906
:10370000E7D192F82420002AE3D00122EFE7FFF767
:1037100003FD46E7FFF7A0FC43E72E4A5B88142130
:1037200001FB03235868FFF7CBFC3AE700225A60FD
:10373000FFF7B2FC35E700238DF80C300DE00122D5
:103740008DF80C201A89ADF818209A88DB6805934B
:10375000ADF81A2000238DF81C3003A8FFF76CFC8D
:10376000002649461D48C8F80060FFF755FC1C4874
:103770000121FFF7ABFB00287FF4D8ADE9E6022278
:103780008DF80C201A89ADF818209A88ADF81A2007
:10379000DA689B7D05929A1F53425341DBE703226F
:1037A0008DF80C20DA88ADF818201A89DB68ADF89E
:1037B0001A200593D1E704228DF80C20DB88ADF8A0
:1037C00018300023ADF81A30F3E70523B4E700BF43
:1037D0008C120020A4120020E0120020CC12002045
:1037E000DC120020EC1200204068FFF797BD2DE9A5
:1037F000F04108B302B3D0F800E0BEF1000F1ED0D4
:10380000FBB14568D5F80480B3FBF8F508FB153526
:10381000BDB942EA010C1CF0030F14D1C568A942DE
:1038200011D34D1EEC180569AC420CD8DEF80C40E3
:10383000A446BDE8F04160470E20BDE8F0810820B5
:10384000FBE70920F9E71020F7E7F0B5D8B1D0F889
:1038500000C0BCF1000F18D0CAB14768D7F800E02B
:103860000EF1FF370F4214D1C768B94211D3046972
:103870004D1E0EFB0255A5420BD8DCF81040A446A5
:10388000BDE8F04060470E20F0BD0820FCE70920AD
:10389000FAE71020F8E7FDF7BFBEFDF7D3BE00F151
:1038A000804000F5C040002382B0036003680193AC
:1038B000019B02B07047800000F1A040D0F80027C3
:1038C00022F44032C0F80027D0F8003743EA014123
:1038D000C0F8001770470000054B4FF0FF32072873
:1038E00043F8202084BFC01880F84820704700BFEC
:1038F000F4120020C208054900F0070001238340AC
:10390000885C20EA03008854704700BF48130020F9
:1039100010B5174C94F858303BBB04F1300320210C
:10392000FF22013911F0FF0103F8012BF9D1C8B2D0
:10393000FFF7D2FF01310C29F9D10E4B0022E02113
:10394000626583F806134021C3F880114FF4BE70FE
:103950001960FFF7A4FF084B4FF00041C3F80413B0
:10396000012384F85830104610BD0820FCE700BF42
:10397000F412002000E100E000600040034B93F8E7
:103980005800003818BF0120704700BFF412002013
:1039900030B52E4B1A1892F93040013453D18C783F
:1039A000002C4CD01C46002254F8045B013541D158
:1039B0001C1884F83020002443F82240920002F1C1
:1039C000804202F5C0420B78D2F810554C7825F4AD
:1039D00098151B04240525F4F85504F4801403F409
:1039E0004033C2F8105523430402D2F8105504F4B2
:1039F000F85423432B43C2F810354A780123012A97
:103A00004FF0A04203FA00F30CBFC2F80835C2F829
:103A10000C3500F5E073032142F82310C2080C496D
:103A2000012300F0070003FA00F08B5C1843885470
:103A3000002003E00132082AB6D1042030BDFE2365
:103A400082F83030D9E70820F8E700BFF4120020F0
:103A50004813002038B5164C2518014695F830005B
:103A6000072809D8FFF738FF95F93030114A03F5D8
:103A7000A273002042F823006318FF2204EBD10454
:103A800083F8302094F8542001F00700012383408C
:103A90001A420BD04FF0A04301F5E072022043F828
:103AA0002200BDE838400846FFF724BF38BD00BFFC
:103AB000F412002000600040074B184490F93030A9
:103AC0009B0003F1804303F5C043D3F8102542F077
:103AD0000302C3F810257047F4120020054B184468
:103AE00090F930008000C0B200F1804000F5C04085
:103AF000704700BFF4120020064B1844012290F9D1
:103B0000303018339B00DBB203F1804303F5C04330
:103B10001A607047F4120020F0B5364D2C1894F955
:103B20003040002C64DA8C78C4F34004002C0BBFC6
:103B3000082300230C260826B34201D10420F0BD3F
:103B400055F8237001373FD12E1845F8232086F809
:103B5000303014B9EA1882F848008A78540713D430
:103B6000D60733D5820002F1A042D2F8004724F0F4
:103B70000204C2F80047204EC20800F007070124E3
:103B8000BC40B75C3C43B4548A780C7812F0020213
:103B900025D09B0003F1804303F5C0430202D3F814
:103BA000101521F4473121F44071C3F81015240495
:103BB000D3F8101502F4F85204F4403422430A43B7
:103BC000C3F810250020BAE70133B5E74C7800F5BB
:103BD000E0724FF0A046A40046F82240CBE7083B35
:103BE0002B4493F8501041EA841483F85040E9E7DD
:103BF0000820A4E7F41200204813002038B51F4C19
:103C0000251895F93020072A16DD224492F848300D
:103C10009B09032B0BD14FF0A043D3F81015C140E3
:103C200001F001010231BDE83840FFF744BE012B2D
:103C30000CBF02210321F6E7D3B2072B1CD8930057
:103C400003F1804303F5C043D3F8100540F00100B1
:103C5000C3F8100502F14000800080B2FFF71FFE9C
:103C600051B195F9303054F823302BB1012303FAC8
:103C700002F2034BC3F8042338BD00BFF412002046
:103C8000006000400E4B034493F93020072A02DD08
:103C90000021FFF710BED3B2072B10D8930003F119
:103CA000804303F5C043D3F8101521F00101C3F898
:103CB0001015012303FA02F2024BC3F808237047E0
:103CC000F41200200060004038B5174C0546FFF79D
:103CD000D9FF621992F9303092F83020072A9FBF3D
:103CE000124A03F5A273002142F8231004EBD50316
:103CF00005F0070193F8542001238B401A4209D0A4
:103D000005F5E0734FF0A042022142F82310284647
:103D1000FFF7F0FD2C4494F83000FFF7DDFDFF23A2
:103D200084F8303038BD00BFF4120020006000403D
:103D30002DE9F04F87B000245A4D03944FF4807260
:103D4000012102F1804303F5C04390B21B68012BAF
:103D500006D1D5F804330B4202D0FFF7A0FD0C4387
:103D60000432B2F5907F4FEA4101EAD14E4B1B6815
:103D7000012B0AD14FF4BE70FFF791FD4FF0A04325
:103D800044F00044D3F81035039314F0FF0F1AD019
:103D9000464F01260025344210D0AB0003F180438A
:103DA00003F5C043D3F81005D3F8101557F82530A4
:103DB00023B1C1F30141C0F3042098470135082D18
:103DC0004FEA4606E7D1002C65DA00214FF0FF33B9
:103DD000CDE90413354D364E4FF00009CA46012790
:103DE0004FF0A04816F9013B5A1C45D0C3F3C2015D
:103DF00006AA5018DCB210F8042C03F03F0B03F0B5
:103E0000070307FA03F31A4236D005EB0B02A409A5
:103E100092F9302055F8222052B9032C2CD10DF103
:103E2000100E1EF801C04CEA030C0EF801C001E0B0
:103E3000032CF4D00BF5E07110F80C0C58F821109D
:103E40001842C1F3014105D0022915D1032C0FD12D
:103E5000214604E003290FD1032C09D10221584641
:103E6000019209F10109FFF726FD019A5FFA89F92C
:103E700012B12146584690470AF1010ABAF1040FDF
:103E8000B0D1B9F1000F06D04FF0A043039AD3F898
:103E90001035934202D107B0BDE8F08F0393049B25
:103EA000059398E7006000407C610040F412002018
:103EB000441300202DE9F84F134DDFF850800746DA
:103EC0004FF0000A04264FF001095FFA8AFB002038
:103ED00009FA0BF4FFF7DFFC2C420AD0D8F80030C7
:103EE00014EA030201BF2343C8F8003087F800B08A
:103EF00016460020FFF7D1FC1EB1A5430AF1010AC6
:103F0000E3D13046BDE8F88FFFFF0F0050130020CB
:103F100010B5A1B19AB101238340C3F3130484B156
:103F20000A4C246823420ED0C00000F1804000F506
:103F3000F830C0F81015C0F81425002010BD0E2070
:103F4000FCE70720FAE70820F8E700BF501300203D
:103F5000012303FA00F0C0F313031BB1054B1B68E8
:103F6000184204D0044BC3F8040500207047082011
:103F7000704700BF5013002000F00140012303FAF6
:103F800000F0C0F313031BB1054B1B68184204D0AB
:103F9000044BC3F80805002070470820704700BF95
:103FA0005013002000F00140074B00221A6082B03D
:103FB0001B680193019B054BD3F80805044B1B6854
:103FC000C0B202B0184700BF00D1004000D000408E
:103FD0005413002084B010B503AC84E80E0089B9F6
:103FE000049B3BB1C369026A01339342C36105D1AB
:103FF00001234362BDE8104004B070478360012391
:104000000361F7E70129F3D0F4E7426A012A04D1FA
:104010000023C361836002614362704738B5044680
:104020000D4600F041F90023054AA360C4E90533B9
:10403000C4E90735236123732260204638BD00BFE1
:10404000A8D9000003696BB1034400F11C021C33C2
:104050009A4204D012F8011B82F8FF10F8E700F52D
:104060008E738360704784B038B5044605A880E835
:104070000E009DF82C30012B04F11C0511D0022BF1
:1040800011D02BB9069AD4F81C12284602F0D6FAA1
:10409000284602F0B5FC01302061BDE8384004B08C
:1040A0007047089AEFE7079808F068F902460B4650
:1040B0002846D4F81C1202F0C1FAE9E738B50446E4
:1040C0000D4600F0F1F80023C4E90533064AA36069
:1040D0002361237784F81C3101232260C4F81C5229
:1040E0002373204638BD00BFC8D9000084B070B526
:1040F00005AC84E80E009DF82C30012B07D10899FF
:10410000BDE8704000F58C7004B0FDF74FB8032B8C
:104110000CD1099E002500F58C740A9BAB4205D991
:10412000715D2046FDF71AF80135F6E7BDE87040ED
:1041300004B0704710B504461C30FCF7D1F930B11B
:1041400004F58C70FDF720F80123A060236110BDF9
:1041500030B5044685B0CDE9022100F0A5F820462F
:104160000023094DA360C4E905332361237340F89C
:104170001C5B4FF41655DDE902210095FCF752F95E
:10418000204605B030BD00BFE8D9000001238360A0
:1041900003617047034607C983E80700704770470B
:1041A00010B4426881685410034601EB6200D207E4
:1041B00048BF0A591B685DF8044B48BFD3581847DD
:1041C0002DE9F0412DED028B044688B026460025EE
:1041D0000F4600F069F8264BA560C4E90555256136
:1041E000257346F8203B3046FCF7BAFA214BDFF83E
:1041F0008C8002943846CDE90035CDF80C8008F06B
:104200009BF819A3D3E9002308F010F908F006FC85
:10421000102208EE100A29460DEB020001F0E6FD1F
:10422000B8F1000F03D0694604A8FFF7B3FFDFED34
:10423000127A039B079368EE277A17EE900A08F02C
:1042400055FC02460B46304604A9FCF7ECFA04A8DC
:10425000FCF78CF86846FCF789F8204608B0BDECFE
:10426000028BBDE8F08100BFFCA9F1D24D62503F46
:1042700014CE00008D4100000024744900DA0000D3
:10428000002070470020704784B001A880E80E002D
:1042900004B0704770470000024A1368013313608E
:1042A000704700BFAC130020054B0360054B1A6834
:1042B00002B91860044B1A6802B150601860704768
:1042C00014DA000098130020A41300208360009BE0
:1042D000C36000230361064BC0E900121A6802B9EB
:1042E0001860044B1A6802B110611860704700BF73
:1042F0009C130020A013002030B5044600686168BC
:1043000003688DB01B6898470546002827D02068B1
:10431000616803685B689847E36805930023069328
:1043200000230793194B8DF82C000A950893032856
:1043300009D8DFE800F00216241D206861680368D0
:104340009B68984706900CAB13E90F00A46825689A
:104350008DE80F0005AB0ECBED682046A8470DB0E9
:1043600030BD2068616803689B6898470890EAE759
:104370002068616803689B6898470990E3E72068B4
:10438000616803689B6898470790DCE7B8D4000031
:104390002DE9F041134F144E0025B84613493B68F0
:1043A00032680C68D3B1002AFCD1002CFAD001226B
:1043B000013B3260C8F8003015442046FFF79CFFEF
:1043C0002469002CF9D10A4B1C682CB123682046C3
:1043D0001B6998476468F8E73460DFE72846BDE862
:1043E000F08100BFAC130020A81300209C13002014
:1043F000981300201FB50B4A0B480023CDE9013369
:1044000013600A4B00930A4B03934FF47A72002314
:104410006946FCF708FA6846FBF7A8FF05B05DF8A7
:1044200004FB00BFAC130020581300209942000089
:10443000E8CE000010B5054C2046FCF791F9204667
:10444000034A0449BDE81040FDF7C9BA58130020DB
:10445000E0000020C101000010B502FB01F1FCF7F3
:10446000F5FF044668B150F8042C22F00302043A28
:10447000242A18D8132A06D802460023C2E900339A
:104480009360204610BD00231B2AC0E900330FD9DA
:10449000242AC0E902330ABFC0E9043300F1100244
:1044A00000F11802E9E7002101F0A0FC204610BD50
:1044B00000F10802E1E700BF014B1868704700BF38
:1044C000F401002070B500294BD00C46054610B110
:1044D000836B002B48D0636ED80734D5B4F90C3009
:1044E000002B3ED02146284600F05AF8E36A0646E3
:1044F00033B1E169284698470028B8BF4FF0FF362E
:10450000A3891A063BD4216B41B104F140039942BF
:1045100002D02846FCF79EFF00232363616C21B183
:104520002846FCF797FF0023636400F007FA636EE8
:104530000022DB07A28127D5A06D00F087FF00F0E5
:1045400003FA304670BDA3899905CBD4A06D00F065
:104550007FFFB4F90C30002BC4D1666E16F0010653
:1045600008D00026304670BD00F06CF9636ED807A5
:10457000B4D4E8E7A06D00F06DFF304670BD21694E
:104580002846FCF767FFBEE7A06D00F063FFD3E7A6
:10459000024B01461868FFF795BF00BFF4010020E9
:1045A000B1F90C202DE9F0410D461107804647D4A2
:1045B0006B6842F40062002BAA815DDDAC6A002CBE
:1045C00057D00023D8F80060C8F8003093B212F436
:1045D000805255D10123E9694046A047431C66D06B
:1045E000AB89AC6A5F0705D56A682B6B801A0BB183
:1045F000EB6BC01AE969024600234046A047411C04
:1046000040D1D8F80030002B3CD01D2B01D0162B08
:1046100055D1AB892A692A6023F400630022AB815B
:104620006A60296BC8F8006019B305F1400399422C
:1046300002D04046FCF70EFF00202863BDE8F08161
:104640002F69B7B193B22E682F609A070CBF6B69C0
:104650000023F61BAB600AE06C6AE96933463A4610
:104660004046A047041EA6EB0406274417DD002E93
:10467000F2DC0020BDE8F081EB6B002B9EDCF8E75C
:10468000286DAFE7B5F90C302A692A6023F400637E
:104690000022AB81DB046A60C3D52865C1E7AB8922
:1046A00043F04003AB814FF0FF30BDE8F081D8F814
:1046B0000030002B94D01D2B06D0162B04D0AB89D4
:1046C00043F04003AB81D5E7C8F80060D1E700BFF5
:1046D00038B50C46054608B1836BA3B1B4F90C009C
:1046E000B8B1636EDB0701D4810515D52846214694
:1046F000FFF756FF636EDA07054602D4A3899B05D0
:104700000ED5284638BD00F09DF8B4F90C000028FD
:10471000E7D10546284638BDA06D00F099FEE5E7D3
:10472000A06D00F097FE284638BD00BF014618B1C5
:10473000044B1868FFF7CCBF034B0449186800F01E
:104740003BBE00BFF401002028DA0000D146000083
:1047500038B5184B1D6804460DB1AB6BB3B1636E31
:10476000D80702D4A38999051FD56368013B002BA4
:1047700063600FDB23685A1C22601D78636EDA07C2
:1047800002D4A3899B050BD5284638BD284600F0E6
:1047900059F8E4E72846214601F04CFE0546EDE7CE
:1047A000A06D00F057FE284638BDA06D00F050FE09
:1047B000DBE700BFF401002010B500230446C0E988
:1047C0000033C0E904338181C28183604366836121
:1047D000194608225C3001F009FB07480749084ADE
:1047E000084BE362C4E90740C4E9091204F1580028
:1047F000BDE8104000F028BE81660000A5660000FC
:10480000E566000005670000014900F0D5BD00BF66
:10481000C544000070B54A1E682505FB02F50E462A
:1048200005F17401FCF712FE044640B100210C3082
:10483000666005F168022160A06001F0D7FA2046A9
:1048400070BD00BF10B50446114800F001FEA26B18
:10485000C2B904F53B730F48C4F8E0220321C4E950
:10486000B913E06304216068FFF7A6FFA068012286
:104870000921FFF7A1FFE06802221221FFF79CFF48
:104880000123A363BDE81040014800F0E3BD00BF71
:104890004C14002009480000F8B50746244800F0F1
:1048A000D7FD244B1E68B36B7BB306F53876D6E98B
:1048B0000134013B04D524E05A1C04F1680420D0E3
:1048C000B4F90C50013B002DF6D11B4BE36004F111
:1048D0005800656600F0B8FD154800F0BBFDC4E95E
:1048E0000155C4E904552560A5610822294604F153
:1048F0005C0001F07BFAC4E90C55C4E9115520466F
:10490000F8BD34682CB12646D1E73046FFF79AFF50
:10491000CBE704213846FFF77DFF044630600028CE
:10492000F1D1034800F096FD0C233B60E7E700BFA0
:104930006014002028DA00000100FFFF014800F0A9
:1049400087BD00BF60140020014800F083BD00BF98
:1049500060140020F0B583B00D46114601AA074649
:1049600006F0E4FD50B306463846FFF795FF0446CF
:1049700020B32946019A4FF4DB73384601F086FADA
:10498000051E31DB636EDB0702D4A389980523D5AE
:104990001B4B1C491C4AE581C4E90743C4E90912C1
:1049A0001A4BA681F105E3620CD4636EDA0702D4D8
:1049B000A3899B0514D5204603B0F0BD00242046F2
:1049C00003B0F0BD022300223846214600F0AEF9C4
:1049D000636EDA07EFD4EBE7A06D00F039FDD7E79F
:1049E000A06D00F037FDE6E70025FFF7A7FFA06DFB
:1049F000A58100F02BFD2C46FFF7A6FFDBE700BFEB
:104A000081660000A5660000E566000005670000FD
:104A1000024B0A4601461868FFF79CBFF4010020CC
:104A200030B5174B1D680C4683B001460DB1AB6B1A
:104A30009BB1636EDB0702D4A389980519D528467C
:104A4000224601F039FA636EDA07054602D4A389DB
:104A50009B0508D5284603B030BD01902846FFF7D6
:104A6000F1FE0199E5E7A06D00F0F4FC284603B0E3
:104A700030BDA06D019100F0EBFC0199DFE700BFB4
:104A8000F4010020F8B5244F0C460646FCF7B3FFAE
:104A9000BB685D68C4F57E610F3125F003054B19D5
:104AA00023F47F6323F00F03A3F58054B4F5805FF4
:104AB00007DB0021304601F0D7FCBB682B4498424D
:104AC00004D03046FCF79BFF0020F8BD6142304621
:104AD00001F0CAFC01300DD0104AB96813682D1BD3
:104AE00045F0010530461B1B4D601360FCF787FF46
:104AF0000120F8BD0021304601F0B6FCBA68831AE7
:104B00000F2BDEDD064C0549246843F00103001B32
:104B100053600860D5E700BF20060020B0130020D6
:104B2000280A002000295ED0F8B50C460646FCF79E
:104B300062FF54F8043CDFF8F0C123F00101A4F156
:104B400008004218DCF808705568974225F0030504
:104B500000F08880DF07556033D454F8087CC01B10
:104B60000CF108048368A342394469D05719D0F87E
:104B70000CE07F68C3F80CE0CEF80830FB0740F18A
:104B8000968041F0010343601160B1F5007F33D29C
:104B9000CB08DCF8044001334A090121914021434C
:104BA0000CEBC3025CF83340CCF80410083AC0E9BF
:104BB00002424CF83300E0603046BDE8F840FCF7B4
:104BC0001EBF53195B68DF070ED429440CF108049B
:104BD0009368A34273D0D468DC6041F00102A36003
:104BE00042604150D1E7704741F00103B1F5007FC9
:104BF00044F8043C1160CBD3B1F5206F4FEA512348
:104C00004AD28B0903F13905ED0003F138025CF853
:104C100005300CEB0504083C9C4259D05A6822F040
:104C200003028A4202D99B689C42F7D1DC68C0E942
:104C30000234A060D8603046BDE8F840FCF7DFBE23
:104C400053195B68DB0766D4D2E90223294441F09B
:104C50000104D3609A60446041503046BDE8F8409A
:104C6000FCF7CDBEDB07294407D454F8083CC01A32
:104C70001944D0E90223D3609A60294B1B6841F0A4
:104C800001028B424260CCF8080095D8254B304693
:104C90001968FFF7F7FE8FE7142B0AD9542B21D898
:104CA0000B0B03F16F05ED0003F16E02AFE7294432
:104CB0008EE703F15C05ED0003F15B02A7E741F02D
:104CC0000103CCE90400C0E902444360415073E7AA
:104CD000DCF804109210012505FA02F20A43CCF820
:104CE0000420A4E7B3F5AA7F06D8CB0B03F178051F
:104CF000ED0003F177028AE740F25452934206D85E
:104D00008B0C03F17D05ED0003F17C027FE74FF48E
:104D10007E757E227BE741F00103436011604BE723
:104D20002C0A0020E01300202006002000F00CB820
:104D300030B4044C0D46134601462A46206830BC68
:104D400000F002B8F40100202DE9F04F0C4697B0B6
:104D500090461F46064608B1836B3BB3636E13F063
:104D6000010FA38902D19D0540F1178103F48473DB
:104D7000B3F5847F00F0FE80D4F82890B9F1000FDD
:104D800000F06A81012F5BD037F0020511D0636E0D
:104D90001622D907326003D4A3899A0540F11881FD
:104DA0004FF0FF35284617B0BDE8F08FFFF74AFDFA
:104DB000D4E72369AB46002B66D0B4F90C3040F63B
:104DC0001A02134299B207D14A057BD4A64A9145EB
:104DD0005FD043F40063A38121463046FFF778FC9F
:104DE000002840F03481E1693B4642463046C847DE
:104DF000013000F02C81216B41B104F14003994254
:104E000002D03046FCF726FB00232363A3892269E6
:104E1000226023F402630021A3816160082204F16F
:104E20005C0000F0E3FF656E15F0010503D1A38976
:104E30009B0540F1D9800025284617B0BDE8F08FCA
:104E400021463046FFF744FCA38913F4805240F01A
:104E50009680E1693B463046C847411C054600F054
:104E6000BB80A3895F0740F18E806368226BED1AD7
:104E7000002A00F0AB80E06B23692D1AA8444FF0A4
:104E8000010B0027002B98D12146304600F012FB81
:104E900093E7B4F90E1000299BDB6A46304600F018
:104EA000E5F8002840F0BA80019B03F47043B3F5A5
:104EB000004F40F0B380A3894FF4806243F48063D5
:104EC000A381E264002F6DD1C246BBF1000F78D1FF
:104ED000A389DB0440F19980206D6368216BC51ABA
:104EE0001A46002900F08880E06B2D1AA26BD4F8D6
:104EF00010C01D44A2EB0C02AD1A0244AA4503DB0C
:104F0000AB18534500F28D80E26CE169524202EA2F
:104F10000A052A4600233046C84701303FF45CAFFB
:104F20002369216B23600023636041B104F14003D6
:104F3000994202D03046FCF78DFA00232363A389FF
:104F4000BAEB050A23F02003A38110D02146304696
:104F500001F0E6F900287FF43FAF63685345FFF4A2
:104F60003BAF2268A3EB0A035244C4E900230822A2
:104F7000002154E721463046FFF7AAFBFCE65F0715
:104F8000256D3FF572AF180720D522682369002AE6
:104F90003FF474AFD21A154470E7A06D00F058FAD0
:104FA000A389E3E6B4F90E106A46304600F05EF8D5
:104FB00000287FF411AF049B08EB030ABBF1000F3C
:104FC00086D0216BB9B16368E06B8FE7236955E741
:104FD000A06D00F03FFAE3E6636EDA073FF5E0AE5E
:104FE000A3899B053FF5DCAEA06D00F033FA28469F
:104FF00017B0BDE8F08F62682068D4F810C0A0EB4D
:105000000C002D1A0244002178E7E1695A46012379
:105010003046C847451C7FF460AFDDE6B4F90C307C
:10502000D7E6AAEB05050CEB0503521BC4E90032D9
:1050300041B104F14003994202D03046FCF70AFA2C
:1050400000232363A38923F02003A3818FE7636EEA
:10505000D9077FF5A1AEA3E6636E1D22D8073260A3
:105060007FF59AAE9CE600BFE566000038B50C46B9
:10507000084D03461146204600221C462A60FCF7D4
:1050800017FE431C00D038BD2B68002BFBD02360DB
:1050900038BD00BF641400209368002B00F08A80A4
:1050A0002DE9F04F9046B1F90C200C46110783B062
:1050B000814693B225D522691AB313F00207D8F8B6
:1050C00000502DD00026DFF8ACB23746AA465F4527
:1050D0003B46324628BF5B464846002F4FD0E16929
:1050E000656AA84700285BDDD8F808301B1A06441B
:1050F0003F1AC8F80830002BE9D1002003B0BDE802
:10510000F08F2146484605F091F9002840F02F81A4
:10511000B4F90C20D8F8005093B213F00207D1D1A3
:1051200013F0010A48D156462EB39A05A76840F1FC
:105130008C80B742BB4600F2B78013F4906F40F00A
:10514000CB80206851465A4600F0E4FDA1682368F0
:10515000C91B5B443746A16023600026D8F808309D
:10516000DB1BBA44C8F80830002BC6D0B4F90C30A9
:105170009BB2002ED9D1D5E900A60835D4E7DAE9EB
:1051800000670AF1080AA2E729465A4600F0C2FD64
:1051900023685B44236021464846FFF799FA58B3D9
:1051A000B4F90C3043F040034FF0FF30A38103B05B
:1051B000BDE8F08F002070473E46AA4638463D467F
:1051C00000976EB3002833D0009A2068D4E9041306
:1051D000B24228BF3246884204D9A16803EB010BD2
:1051E0005A45D1DC93426ADCE169676A2A4648463F
:1051F000B847B0F1000BD3DD009BB3EB0B0300937A
:1052000056D00120D8F80830A3EB0B035D44A6EB81
:105210000B06C8F80830002B3FF46FAF002ED1D139
:105220000AF1080353E902569A460833002EF9D0D2
:1052300032460A21284600F053FC002800F08E80F8
:105240000130431B00931A46BFE720682369984248
:1052500014D86169B14211D86FF00043B34228BF3E
:105260003346676A93FBF1F3524601FB03F348466A
:10527000E169B847071E93DDF61B6FE7B74228BF09
:1052800037463A46514600F045FDA3682268DB1BCD
:105290003A44A3602260002BEED121464846FFF736
:1052A00017FA0028E8D07BE720683746B34649E77D
:1052B00021464846FFF70CFA0028A3D070E729469C
:1052C000019200F027FD019AA1682368891A13440E
:1052D000A160236093468FE7D4E90417226807EBA7
:1052E0004707A2EB010B07EBD7770BF101007F100B
:1052F0003044B8423A4684BF07463A465B051BD560
:1053000011464846FCF7A2F858B35A462169009066
:1053100000F066FCA289009B22F4906242F08002B9
:10532000A281A7EB0B0203EB0B00676123612060F6
:10533000A2603746B34605E74846FCF789F80346BE
:105340000028EED121694846FCF784F8B4F90C3006
:105350000C2223F08003C9F8002023E7721C00927E
:1053600033E70C23C9F80030B4F90C301AE74FF0DA
:10537000FF30C3E600FCFF7F2DE9F04100F53877F0
:1053800088460026D7E90154013D0FD4A389012B9B
:1053900005F1FF3506D9B4F90E30013302D02046AD
:1053A000C04706436B1C04F16804EFD13F68002F2F
:1053B000E8D13046BDE8F0812DE9F843074688463C
:1053C00000F538764FF00009D6E90154013D11D4BB
:1053D000A389012B05F1FF3508D9B4F90E3001334B
:1053E00004D021463846C04749EA00096B1C04F145
:1053F0006804EDD13668002EE6D14846BDE8F88352
:1054000070B50D4E0D4D761BB61006D0002455F824
:10541000043B01349847A642F9D1094E094D761B49
:1054200007F0E8FCB61006D0002455F8043B013420
:105430009847A642F9D170BDA00B0020A00B002018
:10544000AC0B0020A00B0020704700BF704700BFCE
:10545000704700BF704700BF70B50C46B1F90E1021
:10546000002996B015461E4614DB6A46FFF7FEFD7E
:1054700000280FDB019A02F47042A2F50052B2FA42
:1054800082F252094FF480634FF4006032602B6067
:1054900016B070BDA189002311F08000336004D0E4
:1054A000402218462A6016B070BD4FF480632B600E
:1054B00016B070BD70B58B899D0782B00C4607D5BC
:1054C00001F143030122C1E904320B6002B070BD57
:1054D00001AB6A460646FFF7BFFF00990546304616
:1054E000FBF7B4FF80B1B4F90C20174BF3630199BB
:1054F000206042F08003009AA381C4E9040299B9B4
:105500002B43A38102B070BDB4F90C309A05DDD4F1
:1055100023F0030304F1430243F002030121C4E931
:105520000421A3812260D1E7B4F90E10304606F0C1
:105530003BF810B9B4F90C30E2E7A28922F003027B
:1055400042F0010213B2DBE709480000024B0146BA
:105550001868FBF77BBF00BFF4010020024B014637
:105560001868FBF777BF00BFF40100202DE9F04F6A
:1055700001F10B05162D83B0064624D8102900F240
:10558000B780FCF738FA102502211823DFF8F084E1
:105590004344A3F108025C68944200F0B58063685C
:1055A00023F003032344D4E902515A68E96042F02E
:1055B000010230468D605A60FCF721FA083420461B
:1055C00003B0BDE8F08F35F0070500F19180A942E6
:1055D00000F28E80FCF70FFAB5F5FC7FC0F09081E9
:1055E0006B0A00F08C80042B00F26681AB0903F19A
:1055F000390103F13807CB00DFF884844344A3F179
:1056000008005C68A04206D10CE0002A80F22281EA
:10561000E468A04206D0636823F003035A1B0F2AF4
:10562000F3DD3946D8F81040DFF858C4644577D028
:10563000626822F00302531B0F2B00F36F81002BD3
:10564000C8E904CC80F26081B2F5007F80F010815F
:10565000D3080133500901228240D8F8040058F8D9
:105660003370A76008EBC30E0243AEF10800E060A0
:10567000C8F8042048F83340FC608B1001209840A3
:10568000904254D8104206D121F00301400010424C
:1056900001F10401FAD008EBC1094C468E46E768D7
:1056A000BC4207D114E1002B80F21B81FF68BC4291
:1056B00000F00E817A6822F00302531B0F2BF2DDFB
:1056C000D7E902E4791945F001057D6043F0010551
:1056D000CEF80C403046C4F808E0C8E90411C1E92E
:1056E00002CC4D60BB50FCF78AF907F1080402E0D8
:1056F0000C2333600024204603B0BDE8F08F4FF444
:10570000007340213F2777E7DC68A34208BF0231DE
:105710007FF445AFD8F81040DFF868C3644587D1FF
:10572000D8F804208B10012098409042AAD9D8F8CC
:105730000840676827F00307BD4202D87B1B0F2B88
:1057400077DCDFF84493CA4BD9F800201B6801329C
:105750002B4404EB070A00F02E8103F580530F332E
:1057600023F47F6B2BF00F0B5946304600F07CFE84
:10577000411C024600F0EB80824500F2E680BD4B02
:10578000196859441960084600F04B81D9F8001097
:10579000019301311BBFA2EB0A0A5044C9F8002053
:1057A000186012F0070A00F01481CAF108010A44D7
:1057B000CAF5805193440831A1EB0B01C1F30B09E9
:1057C00049463046009200F04FFE421CDDE90023BE
:1057D00000F05C81801A00EB090B1968C8F80820FA
:1057E0004BF00100494444455060196000F02681A7
:1057F0000F2F40F2258160680C3F27F0070700F06B
:10580000010004EB070C38434FF0050E0F2F6060CA
:10581000CCE901EE00F2428150681446964B1A68BA
:105820008A4238BF1960954B1A688A4238BF19609E
:1058300090E0621943F0010345F0010565603046D0
:10584000C8F808205360FCF7DAF80834204603B0A3
:10585000BDE8F08F2344E1685A68A56842F0010270
:10586000E96030468D605A60FCF7C9F8083442E7B9
:10587000B2F5206F4FEA522361D3142B00F2BA80A5
:1058800003F15C00C0005B3308EB000758F8000030
:10589000083F874200F09280436823F0030393425D
:1058A00002D980688742F7D1C768D8F80420C4E9D4
:1058B0000207BC60C460E0E6142B59D9542B00F2F7
:1058C000A1802B0B03F16F0103F16E07CB0093E670
:1058D0000EF1010E1EF0030F04F108047FF4DFAE99
:1058E00051E03A443C465368F96854F8085F43F085
:1058F000010353603046E9608D60FCF780F8FAE6FA
:10590000E90805F1080341E622443046536843F0B4
:10591000010353600834FCF772F8ECE6611943F0B8
:10592000010745F0010565603046C8E90411C1E989
:1059300002CC4F60A350FCF762F80834DBE6930911
:1059400003F13900C00038339EE7444564D0D8F8ED
:105950000840606820F0030B5D45ABEB050302D8FF
:105960000F2B3FF766AF3046FCF749F80024C2E63C
:1059700003F15C0103F15B07CB003DE659F8083900
:105980004B4540F0AA8011F0030F01F1FF31F5D132
:10599000D8F8043023EA0003C8F8043040009842E5
:1059A0003FF6C5AE18B9C2E640000EF1040E18422B
:1059B000FAD071466FE603F1100BD5E69A104FF05E
:1059C000010ED8F804300EFA02F21A43C8F8042087
:1059D0006DE702EB0B014942C1F30B094946304622
:1059E000009200F041FD431CDDE900237FF4F2AE9C
:1059F000D146F2E6542B26D8130B03F16F00C000FA
:105A00006E3341E7B3F5AA7F26D8EB0B03F178019B
:105A100003F17707CB00EFE5164B18685844186080
:105A2000B4E6CAF30B0CBCF1000F7FF4AFAED8F8AC
:105A30000840BB444BF001006060EFE61446EDE621
:105A4000012353608FE7B3F5AA7F33D8D30B03F15B
:105A50007800C000773317E740F25452934233D8AE
:105A6000AB0C03F17D0103F17C07CB00C4E500BF63
:105A7000E0130020B0130020D8130020DC13002016
:105A80002006002028060020280A0020AAF1080A83
:105A9000D344ABEB020B4FF000099EE604F1080182
:105AA00030460093FBF7D6FCD8F80840009B6068AE
:105AB0001968B3E640F2545083420AD8930C03F1BC
:105AC0007D00C0007C33DFE64FF47E737F217E27AC
:105AD00092E54FF47E707E23D6E6D8F804305DE779
