:020000040000FA
:1000000000000120F9020000050300003102000099
:10001000090300003D020000430200000000000050
:100020000000000000000000000000000F030000BE
:10003000110300000000000013030000150300007E
:100040001703000017030000170300001703000048
:100050001703000017030000170300001703000038
:100060001703000017030000170300001703000028
:1000700017030000FF24000017030000170300000F
:100080001703000017030000170300001703000008
:1000900017030000170300001703000017030000F8
:1000A00017030000170300001703000017030000E8
:1000B000170300001703000000000000000000000C
:1000C00017030000170300001703000017030000C8
:1000D00017030000170300001703000000F002F8E8
:1000E00000F098F80AA090E8000C82448344AAF13A
:1000F0000107DA4501D100F08DF8AFF2090EBAE838
:100100000F0013F0010F18BFFB1A43F0010318474B
:100110001083000030830000103A24BF78C878C1F3
:10012000FAD8520724BF30C830C144BF04680C60FD
:10013000704700000023002400250026103A28BF45
:1001400078C1FBD8520728BF30C148BF0B60704749
:100150006E2900F08F82702900F07583662907F000
:100160007F84652907F07C84672907F079846129F9
:1001700007F0788403681B0A28BF41F080016929D1
:1001800000F03C82642900F03982752900F0368243
:100190006F2900F00383782900F04183E92901F0F9
:1001A0002583E42901F02283F52901F01F83EF293B
:1001B00000F00083F82900F040830368DB0928BFC2
:1001C00041F08001632901F0DC82732901F0E182B2
:1001D000E32901F0FF82F32901F004830020704736
:1001E0001FB507F0FCFB9DE8030000F07FFE01F067
:1001F0002FFE04000020002107F028FA401C606058
:100200000020002107F00CFAE06001F037FF00F059
:100210003DFE1FBDDFF814D003B403F0A3FD03BC03
:1002200002F07EF802F093F803F0A0FE0000012037
:100230004FF0100308E04FF0200305E04FF03003CB
:1002400002E04FF0400300BFEFF308804FF00401DD
:1002500072460A4201D0EFF309809C46254B19688B
:1002600002680A60043142680A60043182680A60E8
:100270000431C2680A600431F0C147460F6004319E
:100280004F460F60043157460F6004315F460F60E0
:10029000043102690A60083142690A6004318269E6
:1002A0000A600431C2690A600431034620334FF406
:1002B0000076324200D0043375464FF010063542C6
:1002C00000D148330C46103C2360EFF309820A60EA
:1002D0000431EFF308820A60043172460A60043187
:1002E000EFF314820A606046024B196804F04CFA7E
:1002F000FEE700009C7E00000748804707488047D3
:1003000007480047FEE7FEE7FEE7FEE7FEE7FEE7F9
:10031000FEE7FEE7FEE7FEE729250000615000004A
:10032000DD000000704700000048704760010020B9
:1003300070B5064600F0BEFD056806F10B0020F022
:100340000704B4429CBF002070BD2B466A68BAB156
:100350001068A04210D304F1080188423CBF5068E5
:10036000586007D35168101941601168091B01607A
:1003700058601460101D70BD13465268002AE7D102
:100380002146284600F09EFD0028DED170BD70B5E4
:100390000446051F00F08EFD0068002C14BF446861
:1003A00070BD002C18BFAC423CBF20466468F8D337
:1003B00001680A18AA4218BF456003D12A68054699
:1003C0001144016028684119A1421CBF6C6070BDD6
:1003D0006168696021680844286070BD53EA020CB6
:1003E00000F069802DE9F04B4FF00006002B1FBF95
:1003F000B3FA83F503FA05F424FA05F65E4012BF5A
:100400001643B2FA82F502FA05F4C5F120051EBFC3
:1004100022FA05FC44EA0C04203556EA044C4FEA63
:10042000144418BF641C4FF000084FF000099042BC
:1004300071EB030C39D3002919BFB1FA81F701FA26
:1004400007F6B0FA80F700FA07F6C7F120071EBFDB
:1004500020FA07FC46EA0C062037B6FBF4FCA7EBB3
:100460000507103F07F01F0BCBF120062CFA06F60C
:100470000CFA0BFB44BFB3460026202FA4BF5E46F8
:100480004FF0000B5BEA060C08BF4FF0010B19EBB5
:100490000B0948EB0608ABFB027C06FB02CC0BFB0E
:1004A00003CCC01B71EB0C01C1E70B460246414671
:1004B0004846BDE8F08B13B5084318BF4FF0FF3036
:1004C0000146AFF30080BDE81C4070470B46014673
:1004D000184601F063B900007CB51D4616460C00B5
:1004E000009001D02044401E074B7B442A466946B9
:1004F0000190304601F01BF905461CB10020694609
:1005000001F028F928467CBD711200000FB41CB51B
:10051000084B06AA7B4469460090059801F007F94C
:1005200004460020694601F015F920461CBC5DF820
:1005300014FB00003D12000070B504468569006898
:10054000C10601D5302600E02026C00707D070BDC7
:10055000D4E9012130469047206A401C20626D1E7C
:10056000F6D570BD70B5044685690078C00707D11F
:1005700070BDD4E9012120209047206A401C2062F0
:100580006D1EF6D570BD09684A0501D540B27047A9
:10059000C905FCD500B2704709684A0501D5C0B24B
:1005A0007047C905FCD580B2704770B50C4605464A
:1005B000012A05D02878800600D5EA69002302E0E8
:1005C000012305E05B1C934202D2E05C0028F9D1D4
:1005D000A869E618C01AA861286A18442862284643
:1005E000FFF7AAFF04E0D5E9012114F8010B9047B9
:1005F000B442F8D32846FFF7B5FF70BD2DE9F041AE
:100600000646002410687529314616A510D0FFF75C
:10061000BAFF002802DA404213A507E031688A07D2
:1006200001D512A502E0490704D511A5012401E076
:10063000FFF7B2FF00210A2206F1240709E0B0FB10
:10064000F2FCB0FBF2F302FB1C0030307854184689
:10065000491C0028F3D123462A463046BDE8F04124
:1006600000F07ABC000000002D0000002B0000000C
:100670002000000011680268006A530501D5087067
:100680000AE0D30501D5088006E0130603D5C2179A
:10069000C1E9000200E00860012070472DE9FF5F1A
:1006A00015468A460446DFF8AC80F8440027D8E9AE
:1006B00000103E46CDE9001010E03AF816106A46E8
:1006C00002A801F099FB411C07D02178890603D5C7
:1006D000E269391891420DD80744761C20788006CB
:1006E00002D5E069B84205DDAE42E6DB3AF8160015
:1006F0000028E2D1A069C01BA0612046FFF71CFFC3
:10070000D8E90010CDE90010002017E03AF81810E1
:100710006A4602A801F070FBB0F1FF3F81460BD0A2
:1007200000250DF1080B05E0D4E901211BF80500B7
:1007300090476D1C4D45F7D308F10100B04280464B
:10074000E4DB206A384420622046FFF70BFFBDE857
:10075000FF9F0000BA73000030B4002100F12404B0
:1007600008E002F00705D208303542EA4372DB08A0
:100770006554491C52EA0305F3D10468002310A212
:10078000250708D504F020040C4304D0C4690123D4
:100790000CA2641EC46130BC00F0DEBB10B5044680
:1007A00021461068FFF7F8FE02462046BDE81040DB
:1007B0000023D1E7D21D22F00701D1E90023CBE7C6
:1007C0000000000030000000F0B40D46018809056B
:1007D00002D5214C7C4402E01F4C7C440E340021A5
:1007E00000F1240608E002F00F071209E75D42EA73
:1007F00003721B097754491C52EA0307F3D10278AC
:100800000023120704D5702D06D009B1022311343C
:100810002246F0BC00F0A0BB01231034F8E770B50D
:1008200004460D4621461068FFF7B6FE02462946EB
:100830002046BDE870400023C6E7D21D22F0070322
:10084000D3E90023C0E70368126843F02003036084
:100850000823C3610023B7E7987200002DE9F05F19
:10086000894604464FF0000ADFF874B1FB44C0F833
:1008700020A02046E1688847002874D0252806D0AB
:10088000D4E901219047206A401C2062F1E700264C
:100890005F462046E16888472028054607DB312D62
:1008A00005D2781910F8200C08B10643F1E7B0071B
:1008B00001D526F00406C4F81CA00027C4F818A02F
:1008C0002A2D09D0284606F08AFE38B304EB8708A3
:1008D000303DC8F8185019E059F8041B204604EBC5
:1008E00087029161E1688847012F054618D1E069C8
:1008F000002820DA26F020061DE0D8F8180000EBCA
:10090000800005EB40003038C8F818002046E16848
:100910008847054606F063FE0028EED1012F0AD075
:100920002E2D08D12046E16888477F1C0546022FFE
:1009300046F02006C4DBA069002803DA404246F0F6
:100940000106A061F00701D026F010066C2D0BD037
:10095000682D09D04C2D39D06A2D35D0742D35D065
:100960007A2D33D016E038E0E1682F4620468847DC
:10097000B842054609D16C2F26D04FF48060E1685B
:10098000064320468847054604E06C2F1AD04FF4F2
:10099000807006430DB3A5F14100192802D8203517
:1009A00046F400664A462946204626604E46FFF732
:1009B000CFFB80B101280BD0F61D26F0070000F117
:1009C000080956E74020E4E78020D8E70020D6E772
:1009D00006F104094DE7284652E7206ABDE8F09F7A
:1009E0002872000070B50446C068810713D08006E5
:1009F00001D5A56A04E0A169606808442169451A27
:100A0000204601F0B5F9002206462946204600F0AE
:100A10001BF8304670BD002070BD70B510B1BDE848
:100A20007040DFE70025074C6E1E07E02046FFF709
:100A3000D9FF00B13546206D20F00104002CF5D11E
:100A4000284670BD680100202DE9F0410446164695
:100A50000D464769007B80072ED0384603F09BF98E
:100A600050BB3EB3012E02D0022E25D104E0204619
:100A700001F006F905441DE0384603F078F9E16815
:100A8000002841F01001E16005DA204601F03CF950
:100A90000120BDE8F081C9030BD56268E16A91428B
:100AA00000D81146A26911442269891A814200DDE9
:100AB00008460544002D01DA0220EAE7E16A606891
:100AC000E268814206D29103E06203D522F400314C
:100AD00041F01002A6690027AE4213DCE16A8142B0
:100AE00001D90B4600E0034603EB060C2369ACEB8F
:100AF000030CAC4506DD814201D98C4600E08446FA
:100B00009C4505D1A760276042F02000A5620DE05A
:100B1000AD1BE669AE1B8142A66000D90846C01A2B
:100B2000281A20605819606022F02000034908400C
:100B3000E060002084F84870ABE70000BFCFD7FF2B
:100B40002DE9F0410C461646070047D0104600F04C
:100B500079F82078611C61280AD0722802D07728A1
:100B60003CD102E00125002405E00225042402E036
:100B7000082448F2020511F8010B2B2806D0622840
:100B800009D011F8010C74280AD00BE045F00305D8
:100B900044F00204EFE745F0040544F00104EAE7FD
:100BA00044F010043846214603F0F7F8411C15D0F4
:100BB0000021316171604FF40071F560F161706185
:100BC000200704D5304602220021FFF73DFF306D9B
:100BD00040F0010030653046BDE8F0810020FBE7C1
:100BE0002DE9F0410D460646104C206DC10704D09A
:100BF000410804D020F00104F7E722460EE054201B
:100C0000FFF796FB07000ED0206D47F00101084367
:100C100054212065384600F0CEF83A462946304641
:100C2000BDE8F0418CE70020D6E700006801002015
:100C300011B14FF4807201E04FF480624FF4007301
:100C400001F03FB82DE9F04704464FF000094FF09E
:100C5000FF37C568D4E90486A80707D0204601F00D
:100C600087F8304603F080F8002802DA3846BDE8FD
:100C7000F087280502D54046FFF789FB4C21204626
:100C800000F099F8206D20F0010020654846EEE75D
:100C900030B503461D783DB10A4612F8014B1CB130
:100CA000AC42FAD15B1CF5E7181A30BD40EA0103EB
:100CB00010B59B070FD1042A0DD310C808C9121F05
:100CC0009C42F8D020BA19BA884201D9012010BD3F
:100CD0004FF0FF3010BD1AB1D30703D0521C07E00C
:100CE000002010BD10F8013B11F8014B1B1B07D170
:100CF00010F8013B11F8014B1B1B01D1921EF1D1E1
:100D0000184610BD10B5431C02E010F8011B71B16C
:100D10008107FAD14FF0013202C88C1A8C4314EAD1
:100D2000C211F9D0C01A0A0603D0C01E10BDC01AE5
:100D300010BD0A0401D0801E10BD0902FCD0401E67
:100D400010BD10B5203AC0F00B80B1E81850A0E8F3
:100D50001850B1E81850A0E81850203ABFF4F5AF89
:100D60005FEA027C24BFB1E81850A0E8185044BFE5
:100D700018C918C0BDE810405FEA827C24BF51F852
:100D8000043B40F8043B08BF7047D20728BF31F846
:100D9000023B48BF11F8012B28BF20F8023B48BF97
:100DA00000F8012B704702F0FF0343EA032242EAF6
:100DB000024200F002B84FF0000200B5134694461C
:100DC0009646203922BFA0E80C50A0E80C50B1F1A3
:100DD0002001BFF4F7AF090728BFA0E80C5048BFB7
:100DE0000CC05DF804EB890028BF40F8042B08BF55
:100DF000704748BF20F8022B11F0804F18BF00F851
:100E0000012B70470000000030B44FF0013C50F857
:100E1000042B51F8043BCCFA52F4D51A20D1FCB97A
:100E200050F8042B51F8043BCCFA52F4D51A17D1E0
:100E3000B4B950F8042B51F8043BCCFA52F4D51A4B
:100E40000ED16CB950F8042B51F8043BCCFA52F493
:100E5000D51A05D1002CDAD030BC4FF00000704715
:100E600029BAB1FA81F111F01801D1F120008440C2
:100E7000F2D1CA40CB4012F0FF0213F0FF0330BCA6
:100E8000D01A7047704770477047000070B5064C25
:100E90007C44064D7D4404E02046016808448047B8
:100EA000241DAC42F8D170BDEC760000F076000055
:100EB0007047000000487047640100207047704789
:100EC0007047704738B504460A4600206946AFF3BC
:100ED0000080002808BF38BD02460099204600F077
:100EE000BBFF012038BD012001F08BB9F8B5AFF38D
:100EF0000080054600200C46102000BF0646A819B9
:100F0000A0420DD9324669460020AFF300800700A9
:100F100008BF01F076F90098A04218BF0546C41931
:100F2000FFF7C8FF05600746F01D20F007004619CF
:100F3000284600F00AF8B44208BFF8BDA21B3146AB
:100F40003868BDE8F84000F087BF00210160C0E9C3
:100F500001107047102070472DE9F0470D46994663
:100F60009246044600F124080168880604D5E06929
:100F700021F01001216000E00120A84201DD471BA3
:100F800000E00027A1697A1902EB0900081AA061A4
:100F90002078C00602D42046FFF7CEFA002608E0EB
:100FA000D4E901211AF806009047206A401C761CFB
:100FB00020624E45F4DB2078C0060AD52046FFF7B4
:100FC000BBFA06E0D4E9012130209047206A401C9A
:100FD0002062381EA7F10107F4DC07E0D4E9012103
:100FE00018F805009047206A401C2062281EA5F1D1
:100FF0000105F3DC2046FFF7B5FA2078000602D59C
:101000000220BDE8F0870120FBE72DE9FF4F0C46E9
:101010001E464FF0FF378BB0D2E90001DDF860804B
:101020000A908A46C1F30A5505B93D460021084693
:101030004FF00000BAF1000F00F4400005DA00EBB9
:1010400080004FF4400101EA50004FEA9059B9F195
:10105000010F00DDB9460A9850EA4A000ED044F666
:101060001050A5F2FF3545432F14B8F1000F1ED0E4
:101070007542291E1EDDC9F100021CE0B8F1010F06
:101080004FF0000001D0302103E0F24305E021548D
:10109000401CB042FBDB30460022002121540B995A
:1010A000C1F80880C1E900200FB0BDE8F08FBD1B7A
:1010B0006D1CDEE74A4600DA694206A800F06CFFC4
:1010C00006AB93E8070003AB83E8070050460A9994
:1010D00005F0A5FE8DE80700A0F500501F38009030
:1010E0000398002D0ADD42F21F014A4608440023FE
:1010F00003A90390684606F00EF909E0A0F5005038
:101100004A461F38002303A90390684606F018F9E1
:101110008DE807000004000C03D04FF0FF304108B9
:1011200000E01046B8F1000F03D0002200921546EF
:101130001EE0751E05D400F0A9FE303262556D1E0A
:10114000F9D5B3460122084302D000227F1C04E0F7
:101150002078302801D100227F1E002A099784D0F0
:101160001DE0112D07DA00F091FE303262556D1C42
:1011700050EA0102F5D1084302D00098C8B10EE050
:101180000021681E05E0235C625C63542254401E0B
:10119000491C8142F7DBAB46A81B401E099000208A
:1011A00004F80B000B98099AC0F80880C0E9002BDE
:1011B0007AE711264FF0000857E72DE9F04F8846EF
:1011C0000446D21D22F0070191B0D1E90001CDE91A
:1011D0000A0106F0ECF902460B98C00F01D02D2051
:1011E00007E02068810701D52B2002E0202101EAD9
:1011F000C000032A099001D0072A05DB03464146B7
:10120000204600F089FE0BE12078800601D5E069D8
:1012100000E00620B8F1650F814606D0B8F1660FF0
:1012200018D0B8F1670F70D131E00020B9F1110F7B
:10123000009001DB112301E009F101030AAA01A9D1
:101240000CA8FFF7E2FEDDE90C70002609F10105AC
:10125000834647E001204B4600904FF000470AAA22
:1012600001A90CA8FFF7D1FEDDE90DB00C995D4690
:10127000002610B909F101000D18B9EB050003D4DF
:10128000C0F1FF3609F10105A5EB09002BE0B9F12A
:10129000010F01DA4FF001090020B9F1110F0090A0
:1012A000484601DD112300E003460AAA01A90CA863
:1012B000FFF7ABFEDDE90C704D4600268346207833
:1012C00000070AD4AB4500DA5D4601A8012D04DD14
:1012D000411911F8011C302907D04F4502DA17F1E6
:1012E000040F04DA012082460FE06D1EEEE7002FA6
:1012F00002DCED1B3E4403E0781CA84200DD7D1CAF
:10130000B81B00F1010A4FF000472078000703D412
:10131000AA4501DB4FF0FF3A0021B7F1004F0DF174
:1013200043088DF8431024D002202B23002F01DA2C
:101330007F422D230A21021EA0F1010000DC5FB1D3
:1013400097FBF1FC97FBF1F201FB1C7C17460CF1BB
:10135000300C08F801CDEEE7A8F1010003702188F8
:10136000090501D5452100E06521A0F1010800F83B
:10137000011C09980FA9A1EB0807FF1D00B101206E
:10138000411901EBEA70A1693844081A401EA061B6
:101390002078C00602D42046FFF7CEF8099828B17D
:1013A000D4E901219047206A401C20622078C006C1
:1013B00022D52046FFF7C0F81EE0002E04DBB3451F
:1013C00002DD01A8805D00E03020D4E901219047D2
:1013D000206A401C2062761CAAF101005FEA000A24
:1013E0000AD100F035FDC0680168405CD4E90121F4
:1013F0009047206A401C2062281EA5F10105DCDC14
:1014000007E0D4E9012118F8010B9047206A401C3D
:101410002062381EA7F10107F3DC2046FFF7A2F88F
:10142000032011B041E600002DE9F04F04460D46BF
:10143000D21D22F0070089B0D0E90097484639460E
:1014400006F0B5F80246F80F01D02D2307E020681A
:10145000810701D52B2302E0202101EAC0038DF88A
:1014600020300BB1012000E00020032A824601D089
:10147000072A04DB2946204600F04EFD3FE1207894
:10148000800601D40D2500E0E569C7F30A560D2D4D
:1014900049DA00214FEA175B08464FF00000002FA1
:1014A00000F4400007DA00EB80004FF4400100EB4D
:1014B000D07001EA60008115012901DD4FF0FF3194
:1014C00000224FEA850CBCF1180F06D31346ACF18D
:1014D00018004FF08052C24003E04FF4801323FA0B
:1014E0000CF30CF10C0CBCF1200F04D3ACF1200C6C
:1014F00009FA0CF001E007FA0CF000294FF000485F
:1015000001DD18B90FE00ED140450CD319EB0209EB
:101510005F4121B9404502D19F4329EA0209BBEB53
:10152000175F00D0761C2088000502D57B487844E0
:1015300002E07A487844193808AA302302F80A30C1
:10154000037C0AF10101002E0AF1020A53546A4693
:1015500002DC4FF0300101E04FF031014FF00108A3
:101560008DF8001002D0A6F2FF3603E059EA4701D9
:1015700000D06B4E002D02DC2178090704D54FF016
:1015800002082E218DF80110C44600210BE0C7F39C
:1015900003433F01C35C491C6D1E02F80830052956
:1015A00008F1010801DA002DF1DC00210CE000EB6C
:1015B0001973491C1B786D1E082902F808304FEA80
:1015C000091908F1010801DA002DF0DC21688B0609
:1015D00002D516E0A8F10108E04505DD02EB08039D
:1015E00013F8013C302BF5D0B8F1000F09DD02EB08
:1015F000080313F8013C2E2B03D1090701D4A8F1ED
:101600000108002D05DD3E2102F808106D1E08F1CD
:101610000108407C002E02F8080008F1010804DAF5
:101620002D20764202F8080002E02B2002F8080084
:101630000A214FF47A70864208F101080BDB96FB11
:10164000F0F3303302F8083096FBF0F308F10108AC
:1016500000FB136601E0642E0CDB642096FBF0F3C4
:10166000303302F8083096FBF0F308F1010800FB74
:10167000136601E00A2E06DB96FBF1F0303002F82B
:10168000080008F1010896FBF1F001FB1060303012
:1016900002F80800A16908F1010808EB050202EB55
:1016A0000A00081AA0612078C00602D42046FEF77E
:1016B00043FF216A08AE01EB0A00206204E0D4E98E
:1016C000012116F8010B9047BAF1010AF7D22078F0
:1016D000C00602D52046FEF72FFF6E4609E016F839
:1016E000010B3E280FD0D4E901219047206A401C0D
:1016F0002062B8F10108F2D22046FEF733FF09B0AC
:101700000320BDE8F08F206A2844206203E0D4E97A
:101710000121302090476D1EEBD3F8E78A65000069
:1017200002FCFFFF01694A1C02610878704700B59E
:101730008FB0CDE901310021059105497944CDE90A
:10174000031011466846FFF789F80FB000BD00008E
:10175000E5FFFFFF0A6802F8010B0A607047D1E954
:1017600000239A4202D2531C0B601070704710B5D0
:10177000436913B1AFF3008001E0FEF716FF0120CB
:1017800010BD127800F124010A7000224A70012273
:10179000EDE711684FF0FF32E9E70000074B70B545
:1017A0000D467B44FFF7C3FF0446284600F05CF873
:1017B00010B14FF0FF3070BD204670BD5F5E00007D
:1017C00010B5436913B1AFF3008001E0FEF766FF87
:1017D000012010BD128800F1240182840022C284FD
:1017E0000122EDE711684FF0FF32E9E72DE9F04102
:1017F0008046D21D22F007020025D2E90002F52919
:1018000015A614D0011E72F1000106DA0023D0EBF8
:10181000030063EB020211A608E0D8F800108B0762
:1018200001D50FA602E0490701D50EA601251146F4
:10183000002408F1240704E000F028FB30323A5578
:10184000641C50EA0102F7D12B463246214640463D
:10185000BDE8F041FFF780BB000000002D00000054
:101860002B00000020000000007B00F0800070478B
:1018700070B50D4601461446D36850692A4602F0F9
:10188000D1FA002807DA411C07D0E16820F00040B7
:1018900041F48041E160281A70BD204600F034FA1E
:1018A0004FF0FF3070BDC1680022026021F480510A
:1018B00041F0400111F4C06FC16001D082607047F7
:1018C00002694168891AC269891A816070472DE9E5
:1018D000F0470446C06840F48000E060010312D580
:1018E00020F40020E060810606D4E26A61688A4242
:1018F00000D80A46511A216040F40010E06094F8C4
:101900002500BDE8F08720F40010E060800602D5D5
:10191000204600F050FAE06842F281014FF0FF39B2
:101920000140012903D0204600F0EEF9B6E021681D
:10193000002600290ADAC94340F480502160C4E936
:1019400002606068411C61600078DAE744F240019F
:1019500008420CD020F4A04040F040002660E06037
:1019600021696068401AE169401AA06096E0216927
:1019700091B9C00310D4E069FEF7DAFC2061B0B180
:10198000E06840F4006010F4407FE06002D140F471
:101990008070E06020696060E068D4F814A0C1063F
:1019A0001AD5C0030ED5204600F0E2F914E004F188
:1019B000240020610120E061E06820F4407040F4E0
:1019C0008060E6E721696068401AA16901445046D9
:1019D00002F03DFA0028A6DBE068C0032AD5616862
:1019E000E06A884200D808462169451AE069471B29
:1019F0001BD02046D4F8188000F0BAF908EB050196
:101A00005046C4F8188002F022FA00288BDBE06808
:101A100040F40030E060000202D5A0692844A061D3
:101A2000E1692069C91B45180DE0204600F0A0F9C6
:101A3000E769F5E725696168D4E90607491BE562AE
:101A400008446560A061E06820F0100010F4C06FE9
:101A5000E06002D0204600F0ADFBE06840F480502A
:101A6000C4E90260000205D52069E06260606FF0A1
:101A7000010046E7224639462846FFF7F9FE411C99
:101A80000CD02918E16258B1401E2060681C6060CB
:101A9000E06840F40030E060287832E7484630E7FC
:101AA00065602046FFF7FFFEF8E72DE9F0470546A1
:101AB0000C46C86820F4201040F48000C8608006FE
:101AC00002D5084600F077F9E06841F282014FF054
:101AD000FF390140022903D0204600F015F9B5E096
:101AE00000F42041B1F5004F0FD1C00306D5616865
:101AF000E06A884200D80846606006E02069E0623B
:101B00006060606902F033F9A061A0680022EEB263
:101B100000280DDAE1688B050AD4C043A06041F4C7
:101B200090302260E0606068411C61600670A5E052
:101B3000E0689046226040F40050E060206968BB95
:101B4000606902F028F9012704F12405A0B1A089F9
:101B500010F4407F08D0E069FEF7EAFB206118B17D
:101B6000E06840F4006016E0E7612561E06820F479
:101B7000407040F480600EE0E069FEF7D9FB002879
:101B80002061F1D0E06840F4006010F4407FE06034
:101B900002D140F48070E06020696060E0682569EF
:101BA0006FF0010AC1051FD56168E06A884200D85C
:101BB0000846411B04D02246284600F0AFF8F0BB8F
:101BC000E068010203D5E562C4E9015854E0691CEC
:101BD000E1626160E16940F48030491EC4E90210AD
:101BE00030462E70BDE8F087010202D500F4803245
:101BF0000AE06068411C61600670E0680A2E40F4EB
:101C00008030E06006D00022E16A6068814203D93A
:101C10000B4602E00122F7E70346A7895B1B7F051D
:101C200003D4E7699F4200DDE2B1814200D801465A
:101C3000E5620F1AC4E90158002B09DD00E005E058
:101C400022461946284600F069F808B14846C9E717
:101C500047B1A069E5626560C01BA061E06840F023
:101C60001000E060E068000208D56168A069E562E4
:101C7000491B08446560A0615046B3E73046B1E7B0
:101C800010B50146C268900703D0900607D5886A50
:101C90000AE0FEF749FB01210160881E10BD8B6937
:101CA000486818440B69C01A91F848301BB191F884
:101CB0004910401A10BD1103FCD50028FADD401E62
:101CC00010BD70B5C468A50713D0650211D4B2F574
:101CD000807F09D0B2F5007F06D0B2F5806F08D1C1
:101CE000012300F1240106E05D1E6FF07F46B5423E
:101CF00001D3012070BD0161C361416024F47061B2
:101D00001143C160002070BDC16821F4001141F091
:101D10008001C16000218160016070472DE9F047BA
:101D2000814614460E464FF0FF383248D568576951
:101D3000054209D03846A16902F089F8002811DB74
:101D40002C48C0430540E5602B463246494638469C
:101D500002F080F8A16920F00042B21A1144002874
:101D6000A16103D02046FFF7CFFF4046BDE8F087D2
:101D700070B504460569C06A6168884200D80846A3
:101D8000E16821F42011E160C90312D5A84208D00E
:101D90002246411B2846FFF7C1FF10B14FF0FF302C
:101DA00070BD0020E562C4E90150E06820F4803095
:101DB000E060002070BD10B50446C06820F020002F
:101DC000E060A16AA06988420DD02046FFF7D0FFED
:101DD000E06820F4405040F01000E060A06AA0618C
:101DE0002069E062606044F24001E0688843E0609E
:101DF00010BD0000100002002DE9F04116460C460F
:101E0000054600F01DF8036893F80101012807D08A
:101E1000FF2C12D8185D80B101202C70BDE8F08134
:101E2000D3F807013246214603F20713C7182846A4
:101E3000BC46BDE8F041002360474FF0FF30EDE7BE
:101E400010B500F005F8001D10BD00BF01580000DE
:101E50000048704764020020034640688C46002812
:101E600018BF88423CBF03464068F8D3186818443E
:101E7000884207D00CF1030020F00700001D411A32
:101E8000521A0146081D0A60FEF781BA30B5B0F15A
:101E90000A0271F100034FEA900E4EEA817EB0EB28
:101EA0000E0061EB91014FEA101E4EEA017E10EB2D
:101EB0000E0041EB11114FEA102E4EEA016E10EBAD
:101EC0000E0041EB11214FEA104E4EEA014E10EB8D
:101ED0000E0041EB1141401841F100014FEAD000E2
:101EE00040EA41704FEAD1014FEA810444EA90741C
:101EF00010EB800544EB01046D1944EB0404521B04
:101F0000A3414FF0000348BF0A3200D530BD401C4A
:101F100041F1000130BD00002DE9F0411F460446AB
:101F200003260168072A01F4006004DB08B116A546
:101F300005E016A503E008B115A500E015A521F000
:101F400010002060A069C01EA0610FB1401EA061FA
:101F50002046FEF7F1FA4FB1D4E901213846904707
:101F6000206A401C2062C01C206206E0206AFAE75A
:101F7000D4E9012115F8010B9047761EF8D22046CE
:101F8000FEF7F0FABDE8F0814E414E006E616E0042
:101F9000494E4600696E66002DE9F04781461646B7
:101FA0008AB0354878440DC88DE80D003248784431
:101FB000801C03AC0DC884E80D0041F69B3008443A
:101FC000372190FBF1F290FBF1F5A5F1800501FBC3
:101FD00012041B3C02D56442012000E00020DFF81F
:101FE00098A080460027FA44AAF1BE0A0EE0E00756
:101FF0000AD03246684607EB470101230AEB81010C
:1020000005F09EF98DE8070064107F1C002CEED1CE
:10201000194F7F44AE3F19E0E80715D007EB0410D5
:102020000DF1180A90E80E008AE80E00C068F04230
:1020300001D1981908903246012306A903A805F09A
:102040007FF903AB83E807006D10641C002DE3D11A
:102050004FF0010332466946B8F1000F03A802D0E1
:1020600005F059F901E005F06BF9C9E90001C9F87B
:1020700008200AB0BDE8F087A45B000010B5424814
:102080005421FEF798FE41485421FEF794FE404843
:102090005421FEF790FE3F493B483C4A3F4B0860C5
:1020A0003D490A603A491960531C0365481C106594
:1020B000012008653B48344A39A17844FEF740FDC9
:1020C00020B9384878440A3800F0AEF837482F4A2B
:1020D00035A17844FEF734FD20B9344878440A38F5
:1020E00000F0A2F832482A4A2FA17844FEF728FDD2
:1020F00020B92F4878440A3800F096F84023224847
:10210000DC0000212246FFF7DCFD20B125487844A1
:10211000543800F089F81D48224640230021FFF77B
:10212000D0FD20B121487844543800F07DF818489B
:10213000224610230021FFF7C4FD002806D01C48CA
:102140007844BDE81040563800F06EB810BD104815
:1021500070B5006D20F001040B48FEF773FD0B48CD
:10216000FEF770FD0A48FEF76DFD09E0206D20F0D6
:1021700001052046FEF766FD2046FEF708F92C46CD
:10218000002CF3D170BD000068010020BC010020CC
:1021900010020020E0000020E4000020E800002001
:1021A00072000000CE5D000077000000BD5D000001
:1021B000965D000070B5054640F202260A4C0FE01D
:1021C00094F85000C00708D0AC4206D0E06836EA68
:1021D000000002D12046FEF705FC206D20F001042E
:1021E000002CEDD170BD00006801002010B500206A
:1021F00000F013F8AFF30080BDE81040012001F0BB
:10220000B5BD10B500F018F8BDE81040AFF3008080
:10221000002801D001F0AABD704710B500F04EF8BB
:10222000BDE81040FFF7F4BF10B500F05FF8BDE85F
:102230001040FFF7EDBF000010B5012805D00021C8
:1022400003A000F021F8012010BD09A1F8E700006B
:1022500053494752544D454D3A204F7574206F668F
:102260002068656170206D656D6F727900000000F7
:102270003A2048656170206D656D6F727920636FDB
:10228000727275707465640070B505460C460A205C
:1022900000E06D1C01F0F4FD35B128780028F8D17C
:1022A00002E0641C01F0ECFD14B120780028F8D1A4
:1022B000BDE870400A2001F0E3BD000010B5002128
:1022C00002A0FFF7E1FF012010BD00005349474184
:1022D0004252543A2041626E6F726D616C20746597
:1022E000726D696E6174696F6E00000010B5014611
:1022F00002A0FFF7C9FF012010BD0000534947525B
:10230000545245443A2052656469726563743A20B8
:1023100063616E2774206F70656E3A2000000000C4
:1023200040F2000240F2000140F64830C0F20002E4
:10233000C0F20001C2F20000914218BF08464FF2FD
:102340000001C2F2000118BF1146FDF749BF80B578
:1023500002F0B7FABDE8804002F05AB92DE9F04F1B
:1023600085B046F20018C4F20008002001210022C6
:102370000026039052F80830012B0AD1D8F8043215
:102380000B4206D048F8020058F802300E4304937E
:10239000049B0432202A4FEA4101EBD1D8F87C009B
:1023A00001280ED10020C8F87C00D8F87C0046F047
:1023B00000460490049840F21050C5F200000068F6
:1023C000039040F2144B3006C2F2000B17D00127E5
:1023D000002500BF37420DD008EB8501D1F810046D
:1023E000D1F810145BF8252022B1C0F30420C1F30A
:1023F000014190470135082D4FEA4707EAD1B6F170
:10240000FF3F02DD05B0BDE8F08F40F2105C002018
:10241000C5F2000C04904FF0FF304FF0010A0DF1AF
:1024200008084FF0030E00BF029000250020019025
:102430000BEB050090F85010FF2949D001F03F0048
:10244000C30800F0070218F803600AFA02F73742DF
:102450003ED00BEB000292F93020BEEB911F5BF8EF
:10246000222000D0A2B38909032903D104ACE65C81
:102470003E43E6540CF5F87656F820400DF10C0971
:10248000C4F3014419F803303B4001D0022C03D0BF
:10249000032C08BF002B1BD1032913D156F8203081
:1024A0004FF4003723F4403346F8203056F82030FC
:1024B000022C08BF4FF440373B4346F82030019BC5
:1024C0000133019322B1644690474FF0030EA446B6
:1024D0000135042DACD10198000693D0DCF8001032
:1024E000039881423FF48EAF049803919CE740F239
:1024F0000002C2F2000202EB80000164704781B06A
:102500004DF20010C4F2000000210160016800914A
:10251000009940F2D851D0F80804C2F200010968CD
:10252000C0B201B00847000010B540F6E074CFF229
:1025300000042378062B04BF21795FEA017178D06B
:10254000062B04BF21795FEA017100F08980062B18
:1025500004BF21795FEA017100F09380062B4EF6EB
:10256000885CCEF2000C04BF21795FEA017100F0B3
:102570009E80062B40F20802C4F2000204BF2179BB
:102580005FEA017100F0A180062B04BF21795FEAA8
:10259000017100F0AB80062B04BF21795FEA017165
:1025A00000F0B280062B04BF21795FEA017100F0D0
:1025B000BF80062B04BF20795FEA007000F0FC802A
:1025C000062B04BF20795FEA007000F00A81DCF876
:1025D000001041F2002041F47001CCF80010BFF36C
:1025E0004F8FC1F20000BFF36F8F0168002900F127
:1025F0001C814168B1F1FF3F40F3178140F2EC00CC
:1026000049F20001C2F20000C0F2D03101600120A5
:102610000021C2F81005C2F8FC101060D2F8FC00CE
:102620000028FBD04EF20450C4F201000121C16326
:1026300010BDA16801F0F001302918BF502940F009
:10264000E08040F24421C1F20001D1F8E01043F2F1
:102650004052C1F30421C4F20102116023786FE7F4
:10266000A16801F0F00130297FF471AF4CF27401E0
:102670004FF20D02C4F20701CBF6AD220A602378B7
:1026800065E7A16801F0F001302918BF502940F03A
:10269000BC8040F24421C1F20001096840F23C5282
:1026A000C1F34231C4F200021160237856E7A168F9
:1026B00001F0F00130297FF45CAFDCF8741021F0F8
:1026C0008071CCF87410237853E7A16801F0F00111
:1026D000302918BF502940F09C800021C2F8041115
:1026E000C2F80811C2F8301523784DE7A16801F04F
:1026F000F00130297FF44FAF40F23C51C4F20001A9
:1027000003234B66237846E7A16801F0F0013029E6
:102710007FF448AF45F21061C4F2000105230B605D
:1027200001238B6700238B603F234B60237839E7BD
:10273000A16801F0F00150297FF43BAF40F244233F
:10274000C1F20003D3F8C0E14CF22051C4F2000101
:10275000C1F800E0D3F8C4014860D3F8C80188602C
:10276000D3F8CC01C860D3F8D0010861D3F8D40104
:102770004861D3F8D8010862D3F8DC014862D3F885
:10278000E0018862D3F8E401C862D3F8E801086385
:10279000D3F8EC014863D3F8F0010864D3F8F401EE
:1027A0004864D3F8F8018864D3F8FC01C864D3F80E
:1027B000000208652378FCE6A06800F0F0013029EB
:1027C00018BF502929D140F24420C1F200004069CD
:1027D00040F6E46100F04F00C4F200010860237885
:1027E000EEE6A06800F0F000302818BF502818D19D
:1027F000D2F8F803C0071CBF6FF00100C2F8F8035D
:10280000E5E640297FF49CAE1BE740297FF4A6AEA5
:102810003FE740297FF4B8AE5FE740297FF4D0AEB0
:10282000D1E740287FF4D3AEE2E74EF20451C4F280
:10283000010101220A604FF6FC62CFF6FF728B584D
:10284000002BFCD0152303608B58002BFCD01523E4
:10285000436088580028FCD0002008608858002871
:10286000FCD001F013FA00002DE9F04182B040F2F3
:102870001064C2F2000420464FF47A7100F014FA9A
:1028800040F2000642F66550C0F20006C0F20000B9
:102890002146324601F00CFA40F27068C2F200089C
:1028A00040460A2100F08AFA40F29865C2F200051B
:1028B0001EA1284600F056FB40F6B807C2F20007FA
:1028C00038461F21022200F091FB43F22F00C0F294
:1028D00000003946324601F0EBF940F6F014C2F23E
:1028E00000042046FA21112200F062F942F67D40F0
:1028F000C0F200002146324601F0DAF940F2E85019
:102900000024C2F20000294600223B46009400F059
:10291000BFFA40F2FC50C2F20000414600222B46B2
:10292000009400F0B5FA02B0BDE8F0812564000023
:1029300010B540F27824C2F20004204600F068FF8F
:1029400043F6470040F20002C0F20000C0F200026D
:102950002146BDE8104001F0ABB900002DE9F04779
:1029600040F2F026C2F20006306870B340F2EC2765
:10297000C2F20007396840F2E02840F2DC2A002465
:10298000C2F200084FF00109C2F2000AD1B9D8F82A
:102990000050BDB10138C7F800903060284600F003
:1029A00021FA2D69002DF9D1DAF80050013435B142
:1029B00028680169284688476D68002DF8D130687D
:1029C000002139600028E1D100E000242046BDE864
:1029D000F08740F2F020C2F200000168013101608E
:1029E000704780B584B040F2F020C2F200000021B0
:1029F000016042F6D310C0F20000CDE90111009051
:102A000047F67860C0F20000039040F27820C2F2EE
:102A1000000069464FF47A72002300F0DBFE039851
:102A200010B181686846884704B080BD10B540F297
:102A3000BC20C2F2000001F0BFF840F2F000032415
:102A4000C2F2000050F8241049B10134102CF9D121
:102A5000FDF76AFC182101604FF0FF3403E04FF0EE
:102A6000FF3140F8241040F2BC20C2F2000001F017
:102A7000A3F8204610BD40F2C421C2F2000109684B
:102A800001B1084770470020704770470020704729
:102A900000207047704740F2DC21C2F2000147F687
:102AA0006C320B68C0F200020832026003B90860A1
:102AB00040F2E821C2F200010A6802B150600860E9
:102AC000704752B110B540F6C420C2F200000C4667
:102AD00003F06EFD2070012010BD002070476FF0E4
:102AE0001C0070476FF01500704700207047000011
:102AF000F0B581B0144662B140F6C4260D46C2F26C
:102B00000006274615F8011B304603F097FE013FEB
:102B1000F8D1204601B0F0BD0120704770B51446D1
:102B200040F63032C2F200021268054647F688309D
:102B3000C0F2000000F10800286052B940F6C42637
:102B4000C2F20006304603F043FE3046214603F051
:102B5000B0FC284670BDFDF71ABC000010B5044655
:102B6000603001F089FB94F86010FF290BD001223E
:102B7000002802FA01F040F20851C5F200010CBF32
:102B80000860486010BD47F6D06103A0C0F20001A4
:102B9000202201F042FD00BF6F626A2D3E70696E17
:102BA00020213D202850696E4E616D65294E4300FD
:102BB0002DE9F04389B0174688460446FFF76BFFBE
:102BC00000268660C0E904668661067347F6E43035
:102BD000C0F20000083004F120052060284600F013
:102BE00017FE204600F8606F394601F0F1FA42F610
:102BF0005D3747F66069C0F20007C0F20009404641
:102C0000CDE901760394CDF8109004F066FD9FEDB8
:102C1000180B53EC102B04F073FD04F02DFD9FED09
:102C2000161A00EE100A20EE010A10EE100ACDE985
:102C300005760794CDF8209004F0E4FE02460B469A
:102C400005A9284600F0C6FD089828B1816805A8A6
:102C50008847049820B906E047F66060C0F200009B
:102C6000816801A88847204609B0BDE8F08300BF0D
:102C7000FCA9F1D24D62503F0024744910B50446BE
:102C800047F6E430C0F2000000F10801204640F8A9
:102C9000201B00F0D8FD204610BD0121816001619C
:102CA00070470000000000002DE9F04389B00E4697
:102CB0000446FFF7F0FE00278760C0E904778761CC
:102CC000077347F60440C0F20000083004F1200505
:102CD0002060284600F09CFD42F69B4947F66C6850
:102CE000C0F20009C0F200083046CDE90197039414
:102CF000CDF8108004F0F1FC9FED170B53EC102B76
:102D000004F0FEFC04F0B8FC9FED151A00EE100A6A
:102D100020EE010A10EE100ACDE905970794CDF8D0
:102D2000208004F06FFE02460B4605A9284600F0FD
:102D300051FD089828B1816805A88847049820B9F2
:102D400006E047F66C60C0F20000816801A8884781
:102D5000204609B0BDE8F083FCA9F1D24D62503F96
:102D60000024744910B5044647F60440C0F2000040
:102D700000F10801204640F8201B00F064FD2046C9
:102D800010BD49B942B1D0E9071201319142C16188
:102D900005D08160103003E0012918BF704724304E
:102DA000012101607047416A012918BF7047002165
:102DB0000122C161816002614162704710B50C4619
:102DC000FFF769FE47F62442C0F2000200210832F4
:102DD000816001730260C0E90411C0E90611046258
:102DE00010BD00002DE9F04184B004460068616820
:102DF000026812689047002847D00546206861683D
:102E0000026852689047D4F80C80064603280ED812
:102E1000DFE806F002121A262068616802689268EC
:102E20009047024648F29700C0F200000AE048F2DC
:102E30009700C0F2000004E02068616802689268B0
:102E40009047002200230AE02068616802689268C7
:102E50009047034648F29700C0F2000000220BE0C2
:102E600020686168026892689047014648F29700BE
:102E7000C0F2000000220023A4682768FF688DE8E4
:102E80002300204641460396B84704B0BDE8F081D0
:102E900080B580E80E0040F2E021C2F200010A682D
:102EA000DDF808C04FF0000EC0F80CC0C0F810E00C
:102EB00002B9086040F2E421C2F200010A6802B1DE
:102EC0001061086080BD00EB8100406970470844D4
:102ED000007B704700EB81008069704710B50446A5
:102EE0000068416920468847A06821690022C4E93A
:102EF0000420A16110BD704770B507990446C9B29E
:102F0000022903D001290FD079B114E0D4F81C5262
:102F1000184604F11C0604F0F1FC02460B4630464C
:102F20002946FDF7F3FA06E0049AD4F81C1204F1DE
:102F30001C00FDF7EBFA04F11C00FDF7E3FE013085
:102F4000206170BD016961B1002100BF4218137F8B
:102F5000013182F81C3102699142F7D300F58E717C
:102F60008160704710B50C46FFF795FD47F6444267
:102F70000021C0F200028160C0E9041181610832C1
:102F8000017780F81C1101210260C0F81C42017316
:102F900010BD000070B50799C9B2032908D00129F6
:102FA00015D1049900F58C70BDE8704000F04DBB60
:102FB000069D002D08BF70BD059E00F58C7400BFF6
:102FC00016F8011B204600F0DCFA013DF8D170BD77
:102FD00010B504461C3000F012F930B104F58C70C5
:102FE00000F0BBFAA0600120206110BD70B582B076
:102FF00014460D460646FFF74EFD0020B060C6E9B8
:103000000400B061307347F66440C0F2000008303D
:10301000306006F11C004FF4165C2946224600235E
:10302000CDF800C000F068FA304602B070BDB0B50F
:10303000044647F66440C0F200000830254645F8D3
:103040001C0B04F58C7000F060FB284600F064F95E
:103050002046B0BD6FF0150070476FF018000029D2
:1030600018BF002070476FF0150070470168896A2B
:10307000084770B504460068002103692046012214
:103080009847054600280ED4206800210369204691
:1030900002229847216806460B69204629460022ED
:1030A0009847304670BD284670BD002070470168C3
:1030B00001220B69002118470168896908470368E4
:1030C0001B691847704700207047016800220B6990
:1030D000002118476FF015007047FEDE70474C3036
:1030E00003F066BA10B54C300C4603F0A7FB20463F
:1030F00010BD00EB0110D0F8C41011B10968B83050
:1031000008477047704770B590F9DE1090F9DF20DE
:1031100000F14C060446304603F08CFAD4E93950ED
:1031200000F0010151EA05020BD004EB600009B187
:1031300001684D5994F8EC1094F9ED2094F9EE30B3
:10314000A847D4F8D810304603F0B3F943F2F3019E
:10315000C0F2000130462246BDE8704003F03FBB9C
:10316000F0B585B0044600681546026820460E4654
:10317000904715B994F8DC0020B9012D32D194F8AC
:10318000DD0078B300F0B2FEF16804EB0512D2F86E
:10319000C40002F1B80759B108B903F0D7FB3846AB
:1031A000314600F0B2FB04F14C002946012214E044
:1031B00008B103F0FBFB0020CDE90300CDE90100DD
:1031C00001A9384600F0A1FB049810B1816801A85C
:1031D000884704F14C002946002203F011FB00F05F
:1031E000B3FE05E004EB0510B830314600F08DFB6E
:1031F000206841682046884705B0F0BD7047B0B5EB
:103200000546044655F84C0B016820468847284679
:1032100003F054FB21680546496820468847284644
:10322000B0BD00002DE9F04784B0044647F6E04009
:10323000C0F2000090468946083043F2071143F679
:103240005532C0F200010027C0F2000284E883007A
:1032500004F10C0094C004F1B80020219A46C4E99E
:1032600006772762A78404F1280504F14C06A4F828
:10327000B470FDF7A0FD28462221FDF79CFD3046E5
:103280005521FDF798FD40F2011084F8B070C4E9B3
:103290002977A4F8DC004FF6FF706D460026C4F8CD
:1032A000AC70C4F8D8A084F8DE9084F8DF80C4E95C
:1032B0003877C4F8E87084F8EC70A4F8ED00C4E93D
:1032C0003C77C4F8F87000BF04EB0610B83029460C
:1032D000CDE90277CDE9007700F017FB039810B134
:1032E000816828468847002E4FF00106ECD0D4E9CB
:1032F0000110C20704EB600001D0026851588847F2
:10330000204604B0BDE8F08780B500F005F8BDE8C0
:10331000804000F0B9BC0000F0B585B0044647F627
:10332000E040C0F200000830002601AD0027206018
:10333000FAB220462946CDE90366CDE90166FFF7DA
:103340000FFF049810B1816828468847002F4FF07E
:103350000107EDD0002500BF6019D0F8D41011B1DD
:103360008968C8308847103D15F12000F4D1606CA1
:1033700018B1816804F138008847606B18B1816822
:1033800004F128008847206A18B1FFF774FB002079
:103390002062204605B0F0BD80B582B084468069C9
:1033A0000CF10801CDF800C003F032FB02B080BD83
:1033B000016889680847826900F10801104603F036
:1033C000A9BB10B5044647F6F840C0F2000008302B
:1033D00020600020C4E90200C4E9040000F033FECC
:1033E00043F2B131C0F20001A06103F0AEFB204610
:1033F00010BDFEDE10B5044647F6F840C0F20000EE
:1034000008302060A06904F1080103F083FB204626
:1034100010BD70B50F2801DD002523E040F2F00655
:10342000C2F2000656F82050044602281ADC681C36
:1034300018D1204600F053F8054688B9204600F020
:1034400053F8054660B940F2B820C2F20000007897
:10345000BFF35F8FC00707D040F2D825C2F2000546
:1034600046F82450284670BD40F2B820C2F2000051
:1034700000F020FC0028EFD040F2D825C2F2000571
:1034800047F64861C0F2000128464FF41652FFF794
:1034900045FB40F2B820C2F2000000F037FCDFE745
:1034A00010B5044640F2BC20C2F2000000F084FBDC
:1034B00040F2F0010020C2F20001002251F8223057
:1034C000A34208BF41F822000132102AF6D140F28F
:1034D000BC20C2F20000BDE8104000F06DBB00202F
:1034E00070470021FDF7A4BB002070477047FFF72D
:1034F000F6BDFFF7F7BD7047B0B51C46049B054607
:10350000FFF790FEFC30214600F0C4F847F60C505F
:10351000C0F2000000F10801296000F1280100F16B
:1035200094022846C5F8FC10C5F80021B0BD10B5BE
:103530000446FC3000F0E9F82046FFF7EDFEBDE858
:10354000104000F0A1BB10B50446FC3000F0DDF8DF
:103550002046BDE81040FFF7DFBEB0B50446006866
:10356000C16D204688476069FDF757FA606904F02D
:103570003DF821680546096E204688472846B0BDBB
:103580007047B0B5044600680D46C26D20469047AE
:10359000606900210122FDF757FA6169284604F0AD
:1035A00031F821680546096E204688472846B0BD97
:1035B0002DE9F041054600681646C26D28460C46C6
:1035C000904727466EB104EB060827462868816DB0
:1035D00028468847411C04D0013E07F8010BF5D16D
:1035E00047462868016E28468847381BBDE8F081A9
:1035F000002070470020704700207047002070476F
:10360000002070472DE9F041044600680D46C16D69
:103610002046164605EB020888470027BE420AD01E
:103620002068E95D426D20469047013007F10107AF
:10363000F4D105EB07082068016E20468847A8EB07
:103640000500BDE8F0810020704782B0B0B582B0BF
:10365000CDE90623044600680D46C26D204690471A
:1036600006A96069019100210122FDF7EDF9606969
:10367000019A2946FCF72AFF21680546096E204673
:103680008847284602B0BDE8B04002B07047704796
:1036900070470000B0B582B0044647F68440C0F2DF
:1036A000000008302060201D0022002500F092F963
:1036B00047F6A850C0F2000000F108017430C4E9D8
:1036C00000100BA12046656100F0D3F8606120B1C5
:1036D000FFF707FF204602B0B0BD40F2191005A168
:1036E000C8F2010000220023009500F0F4FF00BFA3
:1036F000772B000053747265616D206F626A2066DB
:1037000061696C7572650000FEDEB0B5044647F66F
:10371000A850C0F2000000F10801216000F174011E
:103720006069254645F8041FFDF78CFA284600F02D
:103730007DF92046B0BD70B51C461546064600F022
:10374000D5FB3046FFF737FEC6E90854B06903F0F1
:10375000D0F9421941EB04033046FFF71DFEBDE8E6
:10376000704000F0F1BBB0B584B0054600F0BEFB80
:103770002846FFF720FE686B05F1280420B195F874
:10378000380008B103F012F90020CDE90200CDE9BC
:1037900000006946204600F0B8F8039810B181682F
:1037A0006846884700F0D0FB04B0B0BD10B50446B1
:1037B000D0E90201D4E9082312184B412046FFF753
:1037C000EBFD616B29B1096804F12800BDE81040E8
:1037D000084710BD2DE9F041984615460F460646AC
:1037E00000F084FB706B06F1280420B996F83800CD
:1037F00008B103F0ABF82046394600F086F83046B1
:103800002A464346FFF797FFBDE8F04100F09CBB16
:1038100010B50446FFF7D5FD47F62460C0F200005E
:103820000830206004F120001821FDF7C4FA0121BE
:10383000204684F8381010BD80B500F004F8BDE8CB
:10384000804000F021BA10B5044647F62460C0F26B
:103850000000083020602046FFF785FF606B18B13C
:10386000816804F1280088472046BDE81040FFF732
:10387000C1BDF0B581B00E460546FFF7D7F8002868
:1038800012D440F2F007C2F200073146044647F86E
:10389000205000F070FB40B957F82400A84206D031
:1038A000FCF742FD09210160002001B0F0BD0020BD
:1038B00047F82400F9E7D0E900128068D30700EB4D
:1038C000620001D0026851580847D0E900128068B0
:1038D000D30700EB620001D0026851580847006826
:1038E0000047704770477047D1E900238968C0E9F5
:1038F000002381607047D1E900238968C0E9002373
:1039000081607047096801607047B0B5044688421D
:1039100012D0E0680D4610B181682046884700202B
:10392000C4E90000C4E90200E96821B14A68204600
:1039300029469047E868E0602046B0BD007B7047AC
:10394000F0B581B0044640F2CC20C2F200000E4631
:1039500000F032F940F2C820C2F20000056800BF52
:1039600075B1AF6857B13846FDF7CCF9B04205D113
:10397000384621463246FDF799F998B16D68EFE770
:10398000072E05D111A021460722FDF78FF980B13E
:1039900040F2CC20C2F2000000F00EF900252846CB
:1039A00001B0F0BD40F2CC20C2F2000000F004F9FA
:1039B000F5E740F2CC20C2F2000000F0FDF840F242
:1039C000D420C2F200000568E9E700BF64656661C3
:1039D000756C740070B5044647F63860C0F200009C
:1039E00008300026C4E9000640F2CC20C2F20000F4
:1039F0000D46A160227300F0DFF83DB140F2C8200F
:103A0000C2F2000001680460616000E0666040F29C
:103A1000CC20C2F2000000F0CFF8204670BD80B587
:103A200000F004F8BDE8804000F02EB910B504465F
:103A300047F63860C0F200000830206040F2CC2029
:103A4000C2F2000000F0B8F8A06880B140F2C821CE
:103A5000C2F200010868A04207D000BF01464068DA
:103A6000A042FBD16068486001E06068086040F2F5
:103A7000D420C2F200000168A14204BF002101600D
:103A800040F2CC20C2F2000000F096F8207B10B982
:103A9000201FFFF705FD204610BD10B50446406805
:103AA00040B1FFF74BFF012804D16068002818BF20
:103AB000043810BD002010BD10B50446406810B198
:103AC000FFF73CFF08B1002010BD6068002818BF58
:103AD000043810BD4068002818BF0120704780B529
:103AE000406828B1FFF72AFFB0FA80F0400980BD96
:103AF000002080BD0068704770B50E460025044662
:103B0000C0E900550FA13046FDF7C2F8304400BFB0
:103B100041192160425D2AB12F2A01D00135F7E712
:103B20000131216035B12946FFF70AFF01462046E1
:103B3000616070BD47F67F7103A0C0F200012A22C8
:103B400000F06BFD2F0000006C656E20213D2030E1
:103B50000000000080B5436883B1D0E903CE0EF0C9
:103B6000010252EA0C0109D0816803EB6E0012B128
:103B7000026852F80CC0BDE88040604780BDB0B517
:103B80000D46C80701D1002409E040F6C420C2F266
:103B9000000002F093FE0446002818BF0124E80646
:103BA00008D540F6C420C2F2000002F0AAFE0028A8
:103BB00018BF10342046B0BD80B50146006808B972
:103BC000086870B10431884208BF80BD48F26620A1
:103BD00048F28921C0F20000C0F200018B2200F0FF
:103BE0001CFD081D086080BD012070471120704732
:103BF0007047FC38FFF773BAFC38FFF773BA7047A9
:103C000010B5A0F1FC04FFF780FD2046FFF784FB10
:103C1000BDE8104000F038B810B5A0F1FC04FFF783
:103C200074FD2046BDE81040FFF776BB10B5A0F547
:103C300080740438FFF769FD2046FFF76DFBBDE88F
:103C4000104000F021B810B5A0F580740438FFF7DB
:103C50005CFD2046BDE81040FFF75EBBFEDE10B500
:103C6000044647F6A850C0F2000000F1080100F138
:103C70007402206944F8041C2260FCF7E3FF20462C
:103C8000BDE81040FFF7D2BEFCF781BB4EF60C50EA
:103C9000BFF34F8FCEF200000168042201F4E0610F
:103CA000C0F2FA5211430160BFF34F8F00BFFDE72E
:103CB0000120704780B5017801F00301012905D08A
:103CC000017811F0030203D0012A06D1002080BD43
:103CD00041F002010170012080BD48F2102103A0D3
:103CE000C0F2000140F29D6200F097FC2867756108
:103CF00072642026204358415F47554152445F4D2E
:103D000041534B29203D3D203000000080B5017813
:103D100001F00302022A04D101F0FC01013101701B
:103D200080BD48F2D91048F21021C0F20000C0F264
:103D3000000140F2A66200F070FC000001A000F05B
:103D4000ABF800BF50757265207669727475616C4E
:103D50002066756E6374696F6E2063616C6C656458
:103D60002100000000F0AEBD00F09CB8FEE710B5E9
:103D7000FFF74FFB40B10168896A8847B0F1FF3F08
:103D8000C8BF10BD444200E00924FCF7CDFA04602E
:103D90004FF0FF3010BD00F00FBCB0B50D4647F638
:103DA0008C61C0F200010446FDF72EF8A8B147F679
:103DB0009361C0F200012046FDF726F880B147F676
:103DC0008461C0F200012046FDF71EF858B120784A
:103DD00040280ED1D4F8014009E00020002404E07E
:103DE0000120012401E002200224FFF712FB2046FB
:103DF000B0BDA80707D468074FBF012028070921D5
:103E000001EAE07000E0022015F00C0F18BF00F589
:103E1000007005F0040140EA01212046BDE8B040F1
:103E200001F0EBBB10B5B2F1FF3F09DD144602F023
:103E30008CF9002808D40CBF44F00040201A10BDB3
:103E4000FCF772FA162101604FF0FF3010BD00221E
:103E500000F0C5BB10B5B2F1FF3F07DD144662B1FB
:103E6000224602F0C4FF002808D503E0FCF75CFA04
:103E7000162101604FF0FF3010BD0020201A10BD48
:103E800080B582B08DF807000DF1070101200122F5
:103E900002F0ADFF02B080BDFEF7A8F900F026B831
:103EA00000F052B810B50446FFF7B3FA40F2F00143
:103EB000C2F20001002241F8242048B1016849699A
:103EC0008847B0F1FF3FC4BF002010BD444200E06E
:103ED0000924FCF729FA04604FF0FF3010BDEFF31E
:103EE0001080012121EA00007047000080B500F039
:103EF0002FFA40F2F820C2F20000016801311CBF25
:103F0000016080BD48F2980102A0C0F200013F228A
:103F100000F083FB637269746963616C5F7365634E
:103F200074696F6E5F7265656E7472616E63795FDE
:103F3000636F756E746572203C2055494E54333260
:103F40005F4D41580000000040F2F820C2F200002E
:103F5000016821B10139016008BF00F006BA70475D
:103F6000EFF30580002818BF0120704708B900BF93
:103F7000FEE700F05FFBB0B582B0054640208DF84B
:103F800003000DF103000195FCF72AFE044638B149
:103F9000284600F011FB18B120460021FCF748FE2E
:103FA000204602B0B0BD406801F03CBD40F20C506C
:103FB000C2F20000418840F24C5201EB8101C2F292
:103FC000000202EB8101CA6842B10521017040F292
:103FD000DC50C2F200000221818002E00422027063
:103FE000081D016840F24C10C2F2000001220023BB
:103FF00000F0DDBF10B582B040F20C54C2F20004F4
:104000006088211D02F062F9C0B1626840F2DC50A4
:10401000C2F2000001688088538801EB8001D81C3F
:10402000032380B22370830040F24C100024C2F2BC
:104030000000009400F0E2FF02B010BD02B0BDE845
:104040001040FFF7B3BF48F2EC30C0F200007047F9
:10405000F0B583B040F21C56C2F200060446305C54
:1040600040F23C5510F0110FC2F200051AD000F0DA
:10407000120102291CD1002040F204518DF80400E5
:10408000C5F200010968012202FA04F7394018BF9D
:1040900001218DF805108DF8060001A9204601F0D8
:1040A00073F943E001202968A04021EA00003FE0C5
:1040B00000218DF80A1003218DF80810C0F3810249
:1040C000032A00F0100004D0012A04D104220121A7
:1040D00003E00C2201E0002100228DF8091058B9FC
:1040E00040F20450C5F2000000EB8400C0F8FC214F
:1040F000012000FA04F719E044F2BD22C0F20002E8
:1041000002A9204601F026F840F24050C2F2000019
:104110000068012101FA04F7384207D0305D10F041
:10412000600F03D02046012100F0BFFF286838430C
:10413000286003B0F0BDB0B505460078FF2814D064
:104140000C4600F0ECF8287840F21C5241B2C2F262
:104150000002535C04F0010503F0FD0343EA45034C
:104160005354BDE8B040FFF773BF47F6B86048F25C
:10417000F421C0F20000C0F20001BD2200F04DFAAF
:1041800010B50446481C217008BF10BDC8B22028D5
:1041900013D242F25D31C0F200010620FEF7A7F90A
:1041A00001F0A6F894F9000040F21C51C2F200019F
:1041B0000A5C42F001020A5410BD48F2D52048F2D0
:1041C000F421C0F20000C0F20001532200F025FAF1
:1041D0000022AFF3008070B515460E460446FFF787
:1041E000CFFF701C08BF70BD2078FF2814D040F2AC
:1041F00008510122C5F2000102FA00F0002D0CBFA7
:104200004860086020460121FFF795FF2046002105
:10421000BDE8704000F00BB847F6B86047F6D061D3
:10422000C0F20000C0F20001202200F0F6F9B0B5A3
:1042300005460078FF2814D00C4600F070F8287866
:1042400040F21C5241B2C2F20002535C04F003057A
:1042500003F0F30343EA85035354BDE8B040FFF78E
:10426000F7BE47F6B86048F2F421C0F20000C0F291
:104270000001B22200F0D1F980B590F90000411C94
:1042800011D040F21C51C2F20001095C890740F2D2
:104290000451C5F2000154BFC968096821FA00F051
:1042A00000F0010080BD47F6B86048F2F421C0F28A
:1042B0000000C0F20001662200F0AFF940F2007188
:1042C000C5F2000140F2405351F82010C2F2000341
:1042D0001B6801F440320221B2F5403F23FA00F39B
:1042E00008BF0121DB070DD040F21C53C2F20003CE
:1042F0001B5CB2F5403F03D15A0658BF704702E03D
:104300009A0600D4704740F2485240F28043C2F20D
:104310000002C2F2000353F820001268104740F276
:104320003C51C2F200010968C140C90708BF70478B
:1043300040F21C51C2F20001095C01F01202022A93
:1043400008BF01F0A6B8C90648BF00F079BF7047A2
:1043500040F23610C2F20000007828B140F2361068
:10436000C2F2000002F086B8704740F23611C2F285
:104370000001012200200A7002F08DB82DE9F047FB
:104380008EB00646B0F1FF3F01A80D4600F10400D3
:104390004FF030011446C4BF40F20116C8F2FF06C8
:1043A000FCF709FD4FF6C360C7F6007030440328E0
:1043B0000196039502D8686BEC6B00E001A80294AB
:1043C0000890FFF793FD40F20030C2F20000016850
:1043D0004A1C0260C9B901AE40F2A8304ECEC2F20A
:1043E00000000DF1240ADDE90554DDE907CE9AE865
:1043F000800780E84E000D9900F12002C0E90454C6
:10440000C0E906CE82E88007016301AF40F2E030E8
:104410008ECFC2F2000080E88E0040F20431C2F27A
:1044200000010DF11C0E0DF1280A0968DDE9056592
:104430009EE810509AE800070D9AC0E90465C0E9AB
:10444000064CC0E908E8C0F82890C0F82CA0026328
:1044500021B140F2E030C2F200008847FFF774FD5E
:104460000EB0BDE8F08700002DE9F04F81B00446A2
:10447000406890F8381011B990F83A0010B101B0C6
:10448000BDE8F08F2068006880472068C0698047D9
:104490000568002D51D01F26012100BFF2B201FA9C
:1044A00002F2954203D0013E3206F7D1002647685A
:1044B000381F1D2849D2072101FA00FB44F2402091
:1044C000C0F20F0000212A46EBFB0021501E61F1D3
:1044D00000012A4600234FF0000AFBF77FFF8046C9
:1044E0008946D4E900104968C0F800A0C0F804A0CB
:1044F00088476168B7F1200208624FF0FF3000FA88
:1045000007F081F83B6058BF0020C043C1E902506A
:104510000120C1F810B0C1E90689C1E90AAAC1E9C0
:104520000CAA0887204681F83AA002F01BFB20461F
:1045300001B0BDE8F04F01F0FBBE40F20510C8F23B
:1045400004000930002715A105E040F205100027FE
:1045500003A1C8F2040000220023009700F0BBF87A
:104560005469636B6572206E756D626572206F664B
:1045700020626974206973206772656174657220B6
:104580007468616E203332206F72206C6573732003
:104590007468616E20342062697473005469636BBF
:1045A0006572206672657175656E63792069732026
:1045B0007A65726F0000000010B5FEF72AFF40B167
:1045C0000168C9698847B0F1FF3FC8BF10BD4442C8
:1045D00000E00924FBF7A8FE0460002010BDB0B580
:1045E00014460D46FEF715FF50B1016822460B69CF
:1045F00029469847B0F1FF3FC8BFB0BD444200E034
:104600000924FBF791FE04604FF0FF30B0BD0000BD
:10461000FEF7E7F9FEF7A2F9FCE782B00B46014688
:1046200040F244109446C8F2FF000022CDF800C0CA
:1046300000F051F882B040F2085641F6802444F66A
:10464000F018C5F20006C0F20604C0F20208FFF737
:104650004DFC01A81121FFF7BBFD0025012700BF7C
:104660009DF80400FF282BD007FA00F03060404688
:1046700002F0AEFB9DF80400FF2821D007FA00F0FD
:104680007060404602F0A4FB0135042DE8D10425FA
:104690009DF80400FF2813D007FA00F03060204690
:1046A00002F096FB9DF80400FF2809D007FA00F0FD
:1046B0007060204602F08CFB013DE9D10025CFE778
:1046C00047F6B86047F6D061C0F20000C0F20001C2
:1046D0002022FFF7A2FF0D4640F2E4511F46C2F22E
:1046E00000010123D1E84F6FC1E8443F310609D1F1
:1046F000009E11467246FFF741FE28463946324673
:1047000001F0C8F800F0BEF883B080B581B00DF1BB
:104710000C0C8CE80E0003A9009100F01AF801B00F
:10472000BDE8804003B0704710B504460220214622
:10473000002202F05CFBFFF7D9FB2046FCF7E2FA0F
:1047400002460220214602F052FBBDE81040FFF76E
:10475000FBBB80B5A2B00B46024601A88421FBF743
:10476000BBFE842808D300218DF8871042F62E6105
:10477000C0F62E21CDF88310012802DB01A8FFF737
:10478000D3FF22B080BD000082B040F2E4570C4657
:104790000646C2F200070120D7E84F1FC7E8420FC4
:1047A0004FF0000808064FF0000522D140F23D15F9
:1047B00014A0C8F2FF05FFF7A7FFA6F110004FF005
:1047C000FF3101EB3011022906D84FEA30121BA04D
:1047D00050F82100154400E015A0FFF795FF1AA03E
:1047E000FFF792FF00F09EFF1AA0FFF78DFF002059
:1047F000387020A1284622460023CDF80080FFF71C
:104800006AFF00BF0A2B2B204D6265644F53204680
:1048100061756C742048616E646C6572202B2B0A84
:104820000A4661756C74547970653A200000000086
:10483000486172644661756C740000007580000008
:104840008F800000848000000A0A436F6E746578D0
:10485000743A00000A0A2D2D204D6265644F5320E2
:104860004661756C742048616E646C6572202D2DF4
:104870000A0A00004661756C74206578636570747F
:10488000696F6E0040F2DC30C2F20000012100BF0F
:10489000D0E84F2FC0E8431F002BF9D1D00705D037
:1048A000FFF724FBBFF34F8F20BFFDE7FFF758FB57
:1048B00028B9FFF714FB10B10120FFF757FBFFF7F2
:1048C000B9FE704780B582B001A80521FFF780FCD2
:1048D0009DF80400FF2809D0012101FA00F040F200
:1048E0000C51C5F20001086002B080BD47F6D061EE
:1048F00002A0C0F200012022FFF78FFE6F626A2D36
:104900003E70696E20213D202850696E4E616D65B4
:10491000294E430070B582B0002872D0046840F67A
:104920008C21054604EB8400C2F2000151F83020CE
:1049300001EBC006954202D195F82C0068B32846D9
:1049400000F010F9356095F82D100020002985F849
:104950002C004BD042F200011022C4F20001C0F240
:104960000802C1F80823C1F84C01D1F84C2101928A
:10497000019AC1F81001D1F810210192019AD1F8E1
:10498000002222F02002C1F800220122327486F8AF
:1049900024001020C1F8040331E095F82D203046A2
:1049A00010F8101F0AB351BB42F200011022C4F2EA
:1049B0000001C0F20802C1F808230022C1F84C210E
:1049C000D1F84C310193019BC1F81021D1F810317D
:1049D0000193019BD1F8003223F02003C1F800328B
:1049E0000123037086F82420D3E741B1204600F06C
:1049F00099F942F20000C4F200000121016002B006
:104A000070BD48F2E73048F27631C0F20000C0F2E3
:104A100000014FF43F72FFF700FE00002DE9F04760
:104A200082B042F21018C4F20008D8F80000002842
:104A300054D00020C8F80000D8F8001040F68C26AA
:104A400001910199C2F20006317C71B13074B073EA
:104A50003168C86B002841D091F84120D2073DD081
:104A60004FF480724A64804738E0B07C80F00101E6
:104A7000B17442F23451C4F200018F6877B300255B
:104A80000DF1040906EB000A06F1180470694946A5
:104A900000F00AFA90B10AEB05010979017070691A
:104AA000494600F069FA00BF54E8000F013844E8B5
:104AB00000010029F8D10135BD42E7D1707C68B909
:104AC00040F6B4210120C2F20001707408704EF269
:104AD0000020CEF200004FF480110160D8F83C00B5
:104AE00010B1D8F80000C8B1D8F8100098B1002073
:104AF000C8F81000D8F8100001210190019840F684
:104B0000B520C2F2000001704EF20020CEF200008B
:104B10004FF48011016002B0BDE8F0870020C8F8B2
:104B20003C00D8F83C0040F68C2101900198C2F27C
:104B30000001887C42F2345280F0010008440430C5
:104B4000C4F20002106001205060086A421CCBD001
:104B50008A69042A02D300F096FAC5E7012081F899
:104B60002400C1E72DE9F041002800F09F80416852
:104B70000446481C40F20070C5F2000009D0012232
:104B80004FF608638A40CFF6FF73C250032240F805
:104B90002120A1684A1C04D0002240F82120A168ED
:104BA00001E04FF0FF3142F21458626842F20856B9
:104BB000C4F20008C4F200067260C8F80010217D3B
:104BC00001290DD1E3685A1C4FF0FF3204D00027B1
:104BD00040F82370E06801E04FF0FF303260B060D1
:104BE000206840F68C2700EB8000C2F2000707EB3C
:104BF000C0002269036A9A424FD0007F00F0CBFCCC
:104C000000285FD1206800EB800007EBC000006A3D
:104C1000013002D0206900F03CFC2069411C33D0F7
:104C200047F6A061C0F2000100F0AEFB082809D1F0
:104C3000206900F02EFC206947F6A061C0F2000157
:104C400000F0A2FB002849D12168206901EB810115
:104C500007EBC1010D7F00F0FCFB0246A6F57E715B
:104C6000284600F07AFC002844D1206800EB800040
:104C700007EBC000007F00F0A7FC002846D12069A8
:104C800000F0F5FB206901E04FF0FF30216801EBF7
:104C9000810107EBC102217D1062607D0843C8F8E5
:104CA0005800A069C8F81000BDE8F08148F2E7306C
:104CB00048F27631C0F20000C0F2000140F24E220C
:104CC000FFF7ABFC48F2633048F27631C0F20000E7
:104CD000C0F2000140F27B22FFF79FFC48F26330F4
:104CE00048F27631C0F20000C0F2000140F2922298
:104CF000FFF793FC48F2633048F27631C0F20000CF
:104D0000C0F200014FF42672FFF787FC48F26330CF
:104D100048F27631C0F20000C0F2000140F29B225E
:104D2000FFF77BFC70B582B042F21014102540F6FC
:104D30008C21C4F20004C0F2080500EB8000C2F22E
:104D40000001C4F8F85101EBC006706900F074F876
:104D50002020B0610020E063E16B42F23452019107
:104D6000019920602168C4F2000200910099D4F8F2
:104D7000F01041F02001C4F8F010311DB074116042
:104D800001215160307486F82400C4F8F45102B057
:104D900070BD10B540F6B520C2F20000017840F6B3
:104DA0008C240129C2F200041BD1E27B0021017096
:104DB00062B1E17361732168086B90B191F834209E
:104DC00052070ED504228A6380470AE06173206887
:104DD000026A32B190F82410C90702D0C0690121DB
:104DE000904740F6B421C2F20001087801280BD1A7
:104DF00020680023026A0B70002A637408BF10BD8C
:104E000090F82410890700D410BDC0690021BDE8C6
:104E10001040104740F2F420C2F20000002101705F
:104E200001F030BF80B501F04FFF40F2F420C2F234
:104E300000000121017080BD81B050E8022FC388BD
:104E4000B2EB324F4FF0000117BF92B243EA034377
:104E500042EA034304E04268B2EB324F08BF01214B
:104E600040E80232002AE8D18DF803109DF80300D3
:104E7000C0074FF0000008BF112001B0704739B1E2
:104E80008446B2FBF3F000FB132018B109207047F1
:104E90000E2070470020CCE90010CCF80800ACF8D8
:104EA0000C20ACF80E30704780B582B050E801CFCE
:104EB0001FFA8CFEC3899E4483899E4528BFAEEBB2
:104EC000030E03899E4502BFBFF32F8F002207E028
:104ED000CEEA0C0E40E801E3002BE7D14FF00102CF
:104EE0008DF80720CDF800C0009A0A609DF80710E1
:104EF000C9071ABF006810FA82F0002002B080BD16
:104F00000A8849888A421CBF0020704750E8022F57
:104F1000C2EA224240E802210029F7D1012070476D
:104F200080B582B050E802CF1FFAACFEC3889E4520
:104F300002BFBFF32F8F00220EE0C3899E448389F6
:104F40009E4528BFAEEB030ECCEA0E4E40E802E3CE
:104F5000002BE7D14FF001028DF80720CDF800C0FB
:104F6000009A0A609DF80710C9071ABF006800EB95
:104F70001240002002B080BD0A8849888A421CBFC6
:104F80000020704750E8012FC2EA024240E80121A8
:104F90000029F7D10120704750E8003FA3EB010240
:104FA00040E8002C9CF0000FF6D110467047B0B5D9
:104FB000C8B1D0F800C0BCF1000F16D0BAB1D0F81B
:104FC00004E0DEF800E0AEF101040C4209D1C4684F
:104FD0008C4206D80EFB021E0569AEF10104AC42FC
:104FE00007D91020B0BD0E20B0BD0820B0BD0920EB
:104FF000B0BDDCF810C0BDE8B0406047B0B54FF0C0
:105000000E0CE0B1DAB1D0F800C0BCF1000F0CD04A
:1050100043B1D0F804E0DEF804E0B3FBFEF404FB97
:105020001E342CB14FF0090C09E04FF0080C06E0DB
:105030008C0708BF5FEA827403D04FF0100C604603
:10504000B0BDC4688C42F8D801EB030E0569AEF11F
:105050000104AC42F1D8DCF80CC0BDE8B0406047B8
:1050600010B540F20004C2F2000440F20001C0F2A8
:1050700000012046DC22FBF764FE4EF60850CEF21B
:105080000000046010BD40F21441C2F20001084467
:1050900090F83000602101EB80006021C0F24001F7
:1050A00061F31F2001210160704710B581B040F20B
:1050B000144CC2F2000C0CEB000313F9302F082A39
:1050C000D2B211DB02EB0C0191F84830032140F21F
:1050D0001052B1EB931FC5F2000226D111680123D3
:1050E000C14063F35F0124E0072A30D846F2001E76
:1050F000C4F2000E0EEB8200D0F8104444F001041C
:10510000C0F810444FF000004EF822005EF8220074
:1051100000900098D9B193F900005CF82000B0B17C
:1051200001209040CEF8040211E09B09012B08BF3A
:10513000022102EB8000D0F8F02122F44032C0F8C6
:10514000F021D0F8F02142EA0141C0F8F01101B09D
:1051500010BD0000F0B540F2144CC2F2000C0CEB94
:10516000000E1EF9303FB3F1FF3F4FF0080365DC3E
:105170008C780C2614F0020583EA85031C4618BFC0
:10518000082600BF5CF82470013705D00134B44212
:1051900003F10103F6D317E08EF800404CF8242009
:1051A0001DB90CEB040282F84800E2B2FF2A0BD0D2
:1051B0008A7857071DD4D20740F20072C5F2000268
:1051C00004D14F78BF0005E0042337E052F8207087
:1051D00027F0020742F820700CEBD00600F007021F
:1051E000012796F8545007FA02F22A4386F8542011
:1051F0008A780978920708D40CEB030090F84820CD
:1052000042EA811180F8481017E046F21052C4F2C9
:10521000000252F823704EF2FF06CFF6FC763740BC
:1052200042F823704FF4F85707EA002052F8237031
:1052300061F31140384342F8230000231846F0BDC3
:10524000B0B540F2144EC2F2000E0EEB000111F99F
:10525000302F40F2007C082AC5F2000C0ADB5CF813
:10526000202022F440324CF820205CF820204CF81A
:10527000202014E0D3B2072B1BD846F21052C4F200
:10528000000252F8234024F0010442F82340012494
:1052900004FA03F34FF6F854CFF6FF7413510B786A
:1052A000072B06D846F21052C4F20002002442F83E
:1052B00023400EEBD00300F00702012413F8545FE3
:1052C00004FA02F22A4205D002244CF82040187851
:1052D0009043187008784FF0FF3208284EF82020CD
:1052E00022BF7044FF2280F84820FF200870B0BD24
:1052F000B0B582B040F21444C2F2000494F85800F1
:1053000008B1082033E004F130002021FF22FF25FE
:10531000FBF749FD00204FF0FF3100BF082844F89B
:10532000201024BF221882F8485001300C28F5D1F3
:105330004EF206410020CEF20001E02260650A70C4
:105340004EF20011CEF200014022C1F880210A6025
:1053500046F27C11C4F2000108600A680192019AC9
:105360004FF00042C1F88821012184F8581002B0A2
:10537000B0BD40F21440C2F2000090F8580000287E
:1053800018BF01207047000070B540F2144CC2F203
:10539000000C0CEB000E1EF8303FFF2B1CBF08204A
:1053A00070BD8B7843B100235CF82320013208D014
:1053B0000133082BF8D14AE0FE228EF8002049780C
:1053C00027E0DAB28EF800304FF0000EFF2A4CF8DA
:1053D00023E03CD046F21056C4F2000691F800E0FB
:1053E000497856F823404EF2FF05CFF6EC752C4075
:1053F00046F823404FF4F85404EA00246EF31144B5
:1054000001F0010556F8232044EA05552A4346F8E1
:10541000232040F208520123C5F20002012903FAB9
:1054200000F114BF5160116002EB80010322C1F84A
:10543000F82100F007010CEBD000012290F8543065
:1054400002FA01F1194380F85410002070BD0420C5
:1054500070BD40F21441C2F20001084490F83010CF
:1054600046F20000C4F2000061F38700704740F28A
:105470001441C2F20001084490F9300046F2105184
:10548000C4F2000151F8202042F0030241F820202C
:10549000704780B540F2144CC2F2000C0CEB0002D5
:1054A00012F8303F072B0CD84FF0FF314CF8231087
:1054B00092F9001046F2105EC4F2000E00234EF87E
:1054C0002130FF2111700CEBD00100F007024FF0EA
:1054D000010E11F8543F0EFA02F21A4208BF80BDC5
:1054E00040F2007CC5F2000C02234CF82030087812
:1054F0009043087080BD00002DE9F04381B04FF665
:10550000FF7640F2005980460025C0F20F060124C4
:10551000C2F200090020FEF7C1FCE8B204FA00F76D
:10552000374203D0D9F80000384209D00020FEF7F6
:10553000B7FCBE43002E05F10105EBD1042408E0C1
:105540003843C9F80000002088F800500024FEF716
:10555000A7FC204601B0BDE8F0834FF00E03C1B1B7
:10556000BAB1132812D840F20053C2F200031B68EC
:10557000C340DB070CD04FF2105CC4F2010C0CEB03
:10558000C0034CF830105A60002302E0072300E00B
:1055900008231846704714280CD240F20051C2F27A
:1055A00000010968012202FA00F0014204BF08204C
:1055B000704702E0012101FA00F04FF20851C4F2F5
:1055C000010108600020704714280CD240F20051FD
:1055D000C2F200010968012202FA00F0014204BF90
:1055E0000820704702E0012101FA00F04FF2045157
:1055F000C4F20101086000207047F0B583B00D4689
:105600000646FDF713FA0446002846D400276846EC
:1056100031460297FEF770FAFEF75CFA40B1684631
:10562000FEF75DFA78B16846FEF746FA02902EE082
:10563000FAF77AFE1321016040F2F000C2F2000096
:1056400040F824701FE06846FEF727FA80B106464E
:105650006846FEF74FFA316802468F6802A9304665
:105660002B46B84790B14542FAF75EFE056003E06D
:10567000FAF75AFE1321016040F2F000C2F2000076
:10568000002140F824104FF0FF3406E0029840F269
:10569000F001C2F2000141F82400204603B0F0BD41
:1056A00010B55FFA81FE47F66431C0F200010B7855
:1056B00040F2341CC2B2FF2BC2F2000C17D0081DFE
:1056C00010F8031CFF2912D0934208BF714504D083
:1056D00003790830FF2BF3D109E000680CEB40019F
:1056E000431C0CF8102081F801E000D010BD9CF89C
:1056F00000009CF8013080EA020183EA0E04214395
:1057000000EA030018BF0121FF284FF00000EDD18F
:10571000002908BF10BD00208CF800208CF801E0A3
:1057200010BD000070B584B040F248360024C2F2CB
:10573000000636A556F8242028462146FEF7E4FF49
:1057400001340D2CF6D106F1400C9CE8211006F135
:1057500034030ECBCDE9000547F6D0704EF6285441
:10576000C0F20000CEF20004CDF808C0FEF7CCFF76
:1057700054F8281C29A0FEF7C7FF61682068236839
:10578000C2B2C3F307232068A568000CD4F814C084
:10579000CDE9000548F21900C0F20000CDF808C0BC
:1057A000FEF7B2FF2068000603D5E1681FA0FEF7F0
:1057B000ABFF2068000403D5216920A0FEF7A4FFF9
:1057C00096F84C00000707D428A0FEF79DFF48F28A
:1057D0006200C0F200000CE01CA0FEF795FF96F8F6
:1057E000500048F26201C0071CA0C0F2000108BFCF
:1057F0000846FEF789FFF06C20A1400722A058BFA1
:10580000084604B0BDE87040FEF77EBF0A52252D61
:1058100034643A2025303858000000000A435055BF
:1058200049443A2025303858000000000A4D4D46C2
:1058300041523A2025303858000000000A424641C3
:1058400052203A2025303858000000000A4D6F647D
:1058500065203A2054687265616400000A507269DC
:1058600076203A2055736572000000000A4D6F647F
:1058700065203A2048616E646C6572000A53746159
:10588000636B3A204D5350000A537461636B3A20A6
:10589000505350002DE9F04140F2E034C2F20004D0
:1058A0000D462168064601F0C0408FB2B0F1C04FEE
:1058B00048F21B10904608BF4F42C1F30743C0F2A5
:1058C00000003A46FEF720FFA7F23110132827D830
:1058D000DFE800F00A101316191C1F2226262626C0
:1058E0002626262626262651A16848F20610C0F252
:1058F000000013E0A16844A010E0A1683EA00DE004
:10590000A16838A00AE0A16831A007E0A16827A03B
:1059100004E0A16829A001E0A1681EA0FEF7F4FE42
:105920003046FEF701FF616848F2C910C0F200007E
:10593000FEF7EAFE4DB138A0FEF7F6FE2846FEF768
:10594000F3FE37A04146FEF7DFFEA16848F2B6102D
:10595000C0F20000FEF7D8FE216848F26C10C0F2D9
:105960000000FEF7D1FE48F2EC00C0F20000BDE8F6
:10597000F041FEF7C9BE02A0FEF7C6FED0E700BFA9
:10598000417373657274696F6E206661696C6564DA
:105990003A2000004D6573736167655175657565E3
:1059A0003A20307825582C200000000054696D659D
:1059B000723A20307825582C200000004576656E1C
:1059C00074466C6167733A20307825582C200000AB
:1059D0004D656D6F7279506F6F6C3A203078255835
:1059E0002C20000053656D6170686F72653A20303D
:1059F0007825582C200000004D757465783A2030C9
:105A00007825582C200000005468726561643A20A3
:105A1000307825582C2000000A46696C653A200031
:105A20002B2564002DE9F04F87B040F6BC2440F2EE
:105A300070490746C2F2000401AEC2F200094FF0FD
:105A4000000800BFD4F800A0BAF1000F0BD140F25B
:105A5000745040F6B821C2F20000C2F20001FFF714
:105A60005FFA824620609AF80000411E052954D84A
:105A7000DFE801F05603032C2C62BAF81410002F53
:105A800000F0D3809AF8160003280DD340F24C534F
:105A900001EB8102C2F2000303EB8202BAF80600B6
:105AA000138918440330108140F24C5201EB8101FC
:105AB000C2F20002BAF8060002EB81014A894FF6F1
:105AC000FD73181A104448813AE000BFC7BB9AF82A
:105AD00004000025022800F0D882012800F024816B
